:100000000C94D90E0C940A0F0C940A0F0C940A0F3E
:100010000C940A0F0C940A0F0C940A0F0C940A0FFC
:100020000C940A0F0C940A0F0C940A0F0C940A0FEC
:100030000C940A0F0C940A0F0C940A0F0C940A0FDC
:100040000C940A0F0C940B6C0C940A0F0C940A0F6E
:100050000C940A0F0C940A0F0C940A650C9492638A
:100060000C940A0F0C94546C0C944A6C0C940A0F68
:100070000C940A0F0C940A0F0C940A0F0C940A0F9C
:100080000C940A0F0C940A0F0C940A0F0C940A0F8C
:100090000C940A0F0C940A0F0C940A0F0C940A0F7C
:1000A0000C940A0F0C940A0F0C940A0F0C940A0F6C
:1000B0000C940A0F0C940A0F0C940A0F0C940A0F5C
:1000C0000C940A0F0C940A0F0C940A0F0C940A0F4C
:1000D0000C940A0F0C940A0F0C940A0F0C940A0F3C
:1000E0000C940A0F084AD73B3BCE016E84BCBFFD7F
:1000F000C12F3D6C74319ABD56833DDA3D00C77FF8
:1001000011BED9E4BB4C3E916BAAAABE0000008090
:100110003F05A84CCDB2D44EB93836A9020C50B91F
:10012000918688083CA6AAAA2ABE000000803F004B
:100130004E414E494E495459494E46CDCCCC3D0ACC
:10014000D7233C17B7D13877CC2B329595E6241FAF
:10015000B14F0A000020410000C84200401C462068
:10016000BCBE4CCA1B0E5AAEC59D744C4556454C80
:10017000494E4700434F4D4D554E49434154494F19
:100180004E0044525952554E004552524F52530060
:10019000494E464F004543484F00363726033C3D05
:1001A000380E2E303E12201A1C1808440AFF43084D
:1001B000090001627573793A207061757365642076
:1001C000666F7220696E7075740A00627573793A91
:1001D0002070617573656420666F72207573657237
:1001E0000A00627573793A2070726F636573736980
:1001F0006E670A002121204B494C4C2063617573C6
:10020000656420627920746F6F206D756368206962
:100210006E6163746976652074696D65202D206355
:10022000757272656E7420636F6D6D616E643A20D5
:10023000005072696E7465722073746F70706564BB
:100240002064756520746F206572726F72732E2042
:1002500046697820746865206572726F7220616EDD
:100260006420757365204D39393920746F207265AB
:1002700073746172742E202854656D706572617498
:100280007572652069732072657365742E205365DD
:10029000742069742061667465722072657374617C
:1002A0007274696E67290A004E6F20436865636B3C
:1002B00073756D2077697468206C696E65206E7542
:1002C0006D6265722C204C617374204C696E653AC6
:1002D0002000636865636B73756D206D69736D6174
:1002E0007463682C204C617374204C696E653A20ED
:1002F000004C696E65204E756D62657220697320D1
:100300006E6F74204C617374204C696E65204E755D
:100310006D6265722B312C204C617374204C696EB8
:10032000653A20004D313130006563686F3A004511
:1003300072726F723A0020580020496E76616C69C3
:100340006420657874727564657220004361703A48
:1003500000526573656E643A200020573A002364AA
:100360006566696E652044454641554C545F004BB7
:100370006420004B6920004B70200050494420410C
:1003800075746F74756E652066696E6973686564EF
:10039000212050757420746865206C617374204B43
:1003A000702C204B6920616E64204B6420636F6E5B
:1003B0007374616E74732066726F6D2062656C6F0A
:1003C0007720696E746F20436F6E6669677572611E
:1003D00074696F6E2E680A00504944204175746F2D
:1003E00074756E65206661696C6564212074696D41
:1003F000656F75740A00504944204175746F7475B7
:100400006E65206661696C6564212054656D706558
:1004100072617475726520746F6F20686967680A0D
:1004200000204B643A2000204B693A2000204B709A
:100430003A20000A20436C61737369632050494479
:10044000200A002054753A2000204B753A200020E5
:100450006D61783A2000206D696E3A200020643A80
:10046000200020626961733A2000504944204175A0
:10047000746F74756E652073746172740A005049EC
:1004800044204175746F74756E65206661696C6592
:1004900064212054656D7065726174757265207495
:1004A0006F6F20686967680A00504944204175747D
:1004B0006F74756E65206661696C656421204261A8
:1004C00064206578747275646572206E756D6265FE
:1004D000720A00206D61783A00206D696E3A004121
:1004E00078697320000000574300005A4300002F32
:1004F000430000000000000000000000004861729E
:1005000064636F6465642044656661756C74205330
:10051000657474696E6773204C6F616465640A006A
:100520000000964300009643000040400000B442A3
:100530000000204300002043AEE3FB4500807944E7
:10054000B80B0000B80B00003200000010270000BC
:100550003B20003A0A0020204D3835312058005AFF
:100560002D50726F6265204F66667365740020447B
:100570000020490020204D333031205000504944A4
:100580002073657474696E67733A0020204D3230B1
:1005900036205800486F6D65206F66667365743A43
:1005A00000204A0020530020204D323035204200E8
:1005B000416476616E6365643A20423C6D696E5FAA
:1005C0007365676D656E745F74696D655F75733EA5
:1005D00020533C6D696E5F66656564726174653E4B
:1005E00020543C6D696E5F74726176656C5F666500
:1005F0006564726174653E204A3C6A756E635F642F
:1006000065763E0020520020204D323034205000CC
:10061000416363656C65726174696F6E2028756EE5
:100620006974732F7332293A20503C7072696E746A
:100630005F616363656C3E20523C726574726163F6
:10064000745F616363656C3E20543C7472617665CF
:100650006C5F616363656C3E0020204D3230312059
:1006600058004D6178696D756D20416363656C65F7
:10067000726174696F6E2028756E6974732F73329E
:10068000293A0020204D3230332058004D617869DE
:100690006D756D206665656472617465732028757B
:1006A0006E6974732F73293A0053746570732070E8
:1006B000657220756E69743A0020204D323030200A
:1006C00044300A0020204D3230302044002044695C
:1006D0007361626C65640A0046696C616D656E7475
:1006E0002073657474696E67733A0020286D6D29F4
:1006F000002020473231202020203B20556E697495
:100700007320696E206D6D004F50454E0054524964
:10071000474745524544003A20007A5F70726F6245
:1007200065007A5F6D696E00795F6D696E00785F54
:100730006D696E005265706F7274696E6720656EC8
:100740006473746F70207374617475730A00203A57
:100750002073796E635F706C616E5F706F73697424
:10076000696F6E0A00202063757272656E745F7027
:100770006F736974696F6E3D003C3C3C20646F5F31
:10078000626C6F636B696E675F6D6F76655F746FC8
:100790000A003E3E3E20646F5F626C6F636B696E61
:1007A000675F6D6F76655F746F00290A003C3C3CA3
:1007B00020646F5F686F6D696E675F6D6F76652827
:1007C0000048697420656E6473746F700A00576125
:1007D0006974696E6720746F2068697420656E643F
:1007E00073746F700A00290A005D005B002C200002
:1007F0002C20003E3E3E20646F5F686F6D696E671F
:100800005F6D6F7665280020706F736974696F6E15
:100810005F7368696674203D200020686F6D655FB6
:100820006F6666736574203D20004178697320000F
:10083000290A003C3C3C207365745F617869735FF2
:1008400069735F61745F686F6D652800203A200AE4
:1008500000202063757272656E745F706F736974C7
:10086000696F6E3D005D203D20003E20686F6D6524
:100870005F6F66667365745B002A2A2A205A2048D7
:100880004F4D454420544F20454E4453544F502023
:100890002A2A2A0A00290A003E3E3E207365745F18
:1008A000617869735F69735F61745F686F6D6528F4
:1008B000005761726E696E673A20486F6D696E67A6
:1008C0002042756D702044697669736F72203C20F8
:1008D000310A0002020404290A003C3C3C20686FF3
:1008E0006D65617869732800000048420000484245
:1008F00055555540203A203E2041465445522073DC
:1009000065745F617869735F69735F61745F686F55
:100910006D650A00202063757272656E745F706F7A
:10092000736974696F6E3D00486F6D65696E673AF3
:1009300020536C6F77206D6F76652E2E2E0A004D3A
:100940006F766520417761793A0A000000A0400087
:1009500000A04000000040486F6D696E673A205368
:100960006C6F77206D6F76652E2E2E0A0000005773
:100970004300005A4300002F43486F6D696E673A89
:100980002046617374206D6F76652E2E2E0A002925
:100990000A003E3E3E20686F6D65617869732800ED
:1009A0000A003E3E3E2041637469766520617869A5
:1009B000732000290A0050726F62653A3A6D6F76B3
:1009C000655F7A28006465706C6F793A2000203A80
:1009D0002050726F62653A3A7365745F6465706C3B
:1009E0006F7965640A00202063757272656E745FAA
:1009F000706F736974696F6E3D00203A203C3C3C17
:100A00002050726F62653A3A70726F62655F646F10
:100A1000776E5F746F5F7A0A00202063757272656B
:100A20006E745F706F736974696F6E3D00203A2059
:100A30003E3E3E2050726F62653A3A70726F626558
:100A40005F646F776E5F746F5F7A0A002020637552
:100A50007272656E745F706F736974696F6E3D005A
:100A600024F4D43050C38E20C2A24017828B701160
:100A7000127A910D816CD90AA861E108C7586607FE
:100A8000615143061E4B5D05C145A7041A4111047F
:100A9000093D9803713931034036DB026533910219
:100AA000D4305402802E1D02632CEE01752AC5013C
:100AB000B028A001102781018F2564012B244B0150
:100AC000E0223401AC211F018D200D01801FFC00AC
:100AD000841EED00971DDF00B81CD200E61BC60087
:100AE000201BBC00641AB200B219A8000A19A000A9
:100AF0006A189900D117910040178B00B516840031
:100B000031167E00B31579003A157300C7146F00D3
:100B100058146A00EE1366008813630025135E0004
:100B2000C7125B006C12570015125400C11151001E
:100B300070114F0021114B00D61049008D10470055
:100B40004610440002104200C00F4000800F3E00DB
:100B5000420F3C00060F3B00CB0E3800930E3700CF
:100B60005C0E3500270E3400F30D3200C10D31004C
:100B7000900D3000600D2E00320D2D00050D2C0063
:100B8000D90C2B00AE0C2900850C29005C0C270029
:100B9000350C27000E0C2600E80B2400C40B2400A3
:100BA000A00B23007D0B23005A0B2100390B2100E1
:100BB000180B2000F80A1F00D90A1E00BB0A1E00ED
:100BC0009D0A1D00800A1D00630A1C00470A1B00C5
:100BD0002C0A1B00110A1A00F7091A00DD09190076
:100BE000C4091900AB091900920917007B09180004
:100BF000630917004C091600360916002009160073
:100C00000A091500F5081500E0081400CC081400C6
:100C1000B8081400A4081400900813007D081200FE
:100C20006B0813005808120046081200340811001F
:100C3000230811001208110001081100F00710002C
:100C4000E0071000D0071000C0071000B0070F0029
:100C5000A107100091070E0083070F0074070F0013
:100C600065070E0057070E0049070E003B070D00F1
:100C70002E070E0020070D0013070D0006070D00BC
:100C8000F9060C00ED060D00E0060C00D4060C0081
:100C9000C8060C00BC060C00B0060C00A4060B0035
:100CA00099060C008D060B0082060B0077060B00E0
:100CB0006C060B0061060A0057060B004C060A0082
:100CC00042060A0038060A002E060A0024060A0018
:100CD0001A060A001006090007060A00FD050900A9
:100CE000F4050900EB050900E2050900D905090032
:100CF000D0050900C7050900BE050900B5050800B3
:100D0000AD050800A50509009C050800940508002C
:100D10008C050800840508007C050800740508009F
:100D20006C050700650508005D050700560508000D
:100D30004E05070047050700400508003805070075
:100D4000310507002A050700230507001C050600DA
:100D5000160507000F050700080506000205070035
:100D6000FB040600F5040700EE040600E804060094
:100D7000E2040700DB040600D5040600CF040600E9
:100D8000C9040600C3040600BD040600B70406003B
:100D9000B1040500AC040600A6040600A00405008A
:100DA0009B04060095040500900406008A040500D3
:100DB00085040500800406007A040500750405001A
:100DC000700405006B04050066040500610405005D
:100DD0005C04050057040500520405004D0405009D
:100DE00048040500430405003E0404003A040500DD
:100DF00035040500300404002C0405002704040019
:100E0000230405001E0404001A040400160405004F
:100E1000110404000D040400090405000404040086
:100E200000040400FC030400F8030400F4030400BD
:100E3000F0030400EC030400E8030400E4030400EE
:100E4000E0030400DC030400D8030400D40304001E
:100E5000D0030400CC030400C8030300C50303004F
:100E600024F404D9201BC40C5C0E9804C4095F024E
:100E700065077101F405F900FB04B300480487001D
:100E8000C10369005803550003034500BE023A0040
:100E90008402310053022A002902250004022000A6
:100EA000E4011C00C8011900AF01170098011400EB
:100EB00084011300710110006101100051010E0046
:100EC00043010D0036010B002B010B0020010B002C
:100ED000150109000C01090003010800FB000800CE
:100EE000F3000800EB000700E4000600DE00060047
:100EF000D8000600D2000600CC000500C70005009F
:100F0000C2000500BD000400B9000400B5000400E3
:100F1000B1000400AD000400A9000400A500030016
:100F2000A20003009F0004009B0003009800030040
:100F30009500020093000300900003008D00020062
:100F40008B0003008800020086000200840003007A
:100F5000810002007F0002007D0002007B00020091
:100F600079000200770001007600020074000200A0
:100F700072000100710002006F0002006D000100AC
:100F80006C0002006A0001006900020067000100B5
:100F900066000100650001006400020062000100BB
:100FA00061000100600001005F0002005D000100BF
:100FB0005C0001005B0001005A00010059000100C3
:100FC00058000100570001005600010055000100C3
:100FD00054000100530000005300010052000100C2
:100FE00051000100500001004F0001004E000000C0
:100FF0004E0001004D0001004C0001004B000000BC
:101000004B0001004A0001004900010048000000B7
:1010100048000100470001004600000046000100B2
:1010200045000000450001004400010043000000AD
:1010300043000100420000004200010041000000A6
:1010400041000100400001003F0000003F0001009E
:101050003E0000003E0001003D0000003D00010098
:101060003C0000003C0000003C0001003B00000090
:101070003B0001003A0000003A0001003900000086
:10108000390001003800000038000000380001007D
:101090003700000037000100360000003600000075
:1010A0003600010035000000350000003500010069
:1010B0003400000034000000340001003300000060
:1010C0003300000033000100320000003200000055
:1010D0003200010031000000310000003100010049
:1010E0003000000030000000300001002F00000040
:1010F0002F0000002F0000002F0001002E00000034
:101100002E0000002E0001002D0000002D00000028
:101110002D0000002D0001002C0000002C0000001C
:101120002C0000002C0001002B0000002B00000010
:101130002B0000002B0001002A0000002A00000004
:101140002A0000002A0001002900000029000000F8
:1011500029000000290000002900010028000000EB
:1011600028000000280000002800000028000100DE
:1011700027000000270000002700000027000000D3
:1011800027000100260000002600000026000000C5
:1011900026000000260001002500000025000000B8
:1011A00025000000250000002500000025000100AA
:1011B000240000002400000024000000240000009F
:1011C0002400010023000000230000002300000091
:1011D0002300000023000000230000002300010082
:1011E0002200000022000000220000002200000077
:1011F0002200000022000100210000002100000068
:10120000210000002100000021000000210000005A
:10121000210001002000000020000000200000004C
:10122000200000002000000020000000200000003E
:10123000200001001F0000001F0000001F00000030
:101240001F0000001F0000001F0000001F00010021
:101250001E0000001E0000001E0000001E00000016
:10126000043700001E290000511B00005810000028
:1012700010090000CC0400007802000041010000C9
:1012800020436F756E7420583A00626564002C200C
:1012900073797374656D2073746F70706564212049
:1012A0004865617465725F49443A2000486561741D
:1012B000696E67204661696C6564004865617469A0
:1012C0006E67206661696C65640070012C01900195
:1012D0002701B0012201C0011D01F0011801100217
:1012E000130130020E016002090190020401C002E4
:1012F000FF000003FA004003F5008003F000D00374
:10130000EB002004E6007004E100E004DC0040058E
:10131000D700C005D2004006CD00D006C800800727
:10132000C3003008BE00F008B900C009B400B00A1C
:10133000AF00B00BAA00D00CA500000EA000500F0B
:101340009B00C01096005012910000148C00C01534
:101350008700B0178200B0197D00D01B7800001EF6
:10136000730040206E0090226900F0246400402742
:101370005F0090295A00E02B5500102E50002030BD
:101380004B0010324600E033410090353C001037EE
:10139000370070383200A0392D00B03A2800A03B49
:1013A0002300603C1E00103D1900903D1400103ECB
:1013B0000F00703E0A00C03E0500003F0000403FA5
:1013C000FBFF803FF6FFC03FF1FF4572723A204DB0
:1013D000415854454D50004D415854454D5020748E
:1013E0007269676765726564004572723A204D499B
:1013F0004E54454D50004D494E54454D5020747249
:101400006967676572656400202F002042403A00DA
:1014100020403A0000002100240027002A002D006F
:101420003000330001010000040107010A0100003F
:101430002200250028002B002E003100340002017C
:101440000000050108010B01000020002300260018
:1014500029002C002F0032000001000003010601CA
:10146000090105050505070508080808020202022A
:101470000A0A080804040404010101010101010130
:101480000303030303030303040707070C0C0C0CFB
:101490000C0C0C0C020202020606060606060606E4
:1014A0000B0B0B0B0B0B0B0B010210202008081071
:1014B00020401020408002010201080402010102C4
:1014C000040810204080804020100804020180049D
:1014D00002018040201008040201080402010102F8
:1014E0000408102040800102040810204080000001
:1014F0000A0B02090C0D0E0807030401000000008E
:1015000000000000000000000000000000000000DB
:101510000000000000000000000012111000000098
:1015200000000000000000000000000000000000BB
:10153000000000002020506C616E6E65724275667E
:1015400066657242797465733A200020467265655B
:10155000204D656D6F72793A2000436F6D70696C34
:1015600065643A204A756E20313020323032300ABC
:1015700000204C61737420557064617465643A2076
:10158000323032302D30332D3037207C204175748D
:10159000686F723A20526963686172642048616CB6
:1015A0006C0A00322E302E342E340A004D61726CDB
:1015B000696E0020536F667477617265205265739F
:1015C00065740A00205761746368646F6720526510
:1015D0007365740A002042726F776E206F757420F5
:1015E00052657365740A002045787465726E616C8B
:1015F0002052657365740A00506F77657255700AE2
:101600000073746172740A0020503A00205A3A0044
:1016100020593A0020583A00656E6473746F7073F5
:10162000206869743A20006F6B00496E76616C69BE
:10163000642065787472756465720A003C3C3C20D5
:101640005428290A00203A2041465445520A0020D5
:101650002063757272656E745F706F736974696F01
:101660006E3D00203A204245464F52450A00202058
:1016700063757272656E745F706F736974696F6E93
:101680003D00290A003E3E3E20542800290A002041
:10169000746F20003F5A206F7574206F662072614E
:1016A0006E6765202800290A0020746F20003F59CA
:1016B000206F7574206F662072616E676520282D1B
:1016C00000290A0020746F20003F58206F75742095
:1016D0006F662072616E676520282D0050726F6200
:1016E00065204F6666736574205800454550524F1B
:1016F0004D2064697361626C65640A00486F6D65B2
:101700002025732573257320466972737400546F06
:101710006F206661722066726F6D207265666572F9
:10172000656E636520706F696E740A00FFFFFF00CD
:101730000000000000000000000000646973006504
:101740006E0043290A0061626C656420286D696E31
:101750002074656D702000436F6C6420657874722E
:101760007564657320617265200020643A00206909
:101770003A0020703A00496E76616C6964206578A1
:101780007472756465720A0020466C6F773A2000A7
:101790004F4646004F4E0020204D61783A200020F1
:1017A0000020204D696E3A2000536F667420656EEC
:1017B0006473746F70733A20003F4A206F75742011
:1017C0006F662072616E67652028302E303120747C
:1017D0006F20302E33290A0020540020520041632C
:1017E00063656C65726174696F6E3A2050002F2FCB
:1017F00020004348414D4245525F54454D504552AB
:101800004154555245004D4F54494F4E5F4D4F4442
:10181000455300544845524D414C5F50524F54453A
:101820004354494F4E004155544F5245504F525426
:101830005F53445F5354415455530050524F4D50E1
:10184000545F535550504F525400454D45524745F3
:101850004E43595F50415253455200434153455FF7
:101860004C494748545F4252494748544E455353A8
:1018700000544F47474C455F4C4947485453005329
:101880004F4654574152455F504F574552004255BD
:10189000494C445F50455243454E54004C455645D3
:1018A0004C494E475F44415441005A5F50524F42A9
:1018B00045004155544F4C4556454C005052494EF9
:1018C000545F4A4F420050524F47524553530041D4
:1018D00055544F5245504F52545F54454D50005649
:1018E0004F4C554D455452494300454550524F4D7C
:1018F0000042494E4152595F46494C455F5452415E
:101900004E534645520053455249414C5F584F4E45
:101910005F584F4646004649524D574152455F4E2B
:10192000414D453A4D61726C696E20322E302E3435
:101930002E3420284769744875622920534F555228
:1019400043455F434F44455F55524C3A6874747049
:10195000733A2F2F6769746875622E636F6D2F4D10
:1019600061726C696E4669726D776172652F4D6147
:10197000726C696E2050524F544F434F4C5F564526
:101980005253494F4E3A312E30204D414348494E33
:10199000455F545950453A4C4554552D4D616B6542
:1019A000722045585452554445525F434F554E544A
:1019B0003A3120555549443A623561636266613077
:1019C0002D353036382D343364312D613630372D96
:1019D0006435656163376563373032330A002057F9
:1019E0003A004D3131332053006F66660095019007
:1019F000018901820174016B0144454255473A0057
:101A00006F6B0050726F7465637465642050696E0B
:101A10000A002569730025696D2025697300256911
:101A2000682025696D202569730025696420256972
:101A3000682025696D20256973002569792025694D
:101A400064202569682025696D202569730050721E
:101A5000696E742074696D653A2000203A203C3C20
:101A60003C2072756E5F7A5F70726F62650A00204B
:101A70002063757272656E745F706F736974696FDD
:101A80006E3D00203A203C3C3C2072756E5F7A5FD0
:101A900070726F62650A00202063757272656E74E1
:101AA0005F706F736974696F6E3D00534C4F5720C0
:101AB00050726F6265206661696C210A00203A20CD
:101AC0003E3E3E2050726F62653A3A72756E5F7AA2
:101AD0005F70726F62650A00202063757272656EB6
:101AE000745F706F736974696F6E3D003C3C3C209D
:101AF00050726F62653A3A70726F62655F61745FCF
:101B0000706F696E740A0050726F62696E6720466A
:101B100061696C65640A00506F736974696F6E2047
:101B20004E6F7420526561636861626C650A0020C3
:101B30003A200A00202063757272656E745F706FC0
:101B4000736974696F6E3D005F72656C617469766C
:101B500065290A002C20002C20002C20002C2000BD
:101B60003E3E3E2050726F62653A3A70726F626517
:101B70005F61745F706F696E742800205A3A2000AC
:101B800020593A200042656420583A2000204E6FC8
:101B90007A7A6C65290A0053616D65205A20617359
:101BA0000041626F76650042656C6F7700202620E9
:101BB000002D43656E746572002D46726F6E740061
:101BC0002D4261636B002028416C69676E6564205B
:101BD000576974680020284D6964646C650020288A
:101BE0004C65667400202852696768740050726FF3
:101BF0006265204F666673657420580050726F628C
:101C0000653A204649585F4D4F554E5445445F5004
:101C1000524F42450A004D616368696E65205479F0
:101C200070653A2043617274657369616E0A003CA5
:101C30003C3C204732380A005261697365205A20C3
:101C4000286265666F726520686F6D696E6729200E
:101C5000746F20002E2E2E0A00446F45203D200078
:101C60002E2E2E0A00446F5A203D20002E2E2E0AC2
:101C700000446F59203D20002E2E2E0A00446F583C
:101C8000203D20003E20686F6D696E67206E6F7486
:101C9000206E65656465642C20736B69700A3C3C3A
:101CA0003C204732380A003E3E3E204732380A0088
:101CB00047322F47332062616420706172616D6525
:101CC000746572730A0020746F6F206C6F6E6720EA
:101CD000657874727573696F6E2070726576656E63
:101CE0007465640A0020636F6C6420657874727593
:101CF00073696F6E2070726576656E7465640A0034
:101D000020746F6F206C6F6E6720657874727573C6
:101D1000696F6E2070726576656E7465640A002066
:101D2000636F6C6420657874727573696F6E207070
:101D3000726576656E7465640A00220A00556E6BE2
:101D40006E6F776E20636F6D6D616E643A20220056
:101D500020453A00205A3A0020593A00583A0020CB
:101D60004500205A00205900204D39322058005497
:101D70004845524D414C2052554E4157415900540F
:101D80006865726D616C2052756E61776179005083
:101D900072696E7465722068616C7465642E206B64
:101DA000696C6C28292063616C6C6564210A0000F1
:101DB0007E6C11241FBECFEFD1E2DEBFCDBF00E0AD
:101DC0000CBF12E0A0E0B2E0ECE1F6EF00E00BBFE8
:101DD00002C007900D92A437B107D9F720E1A4E71C
:101DE000B2E001C01D92A632B207E1F71EE0C9EDD4
:101DF000DEE000E006C021970109802FFE010E946D
:101E0000DE7AC83DD10780E00807A9F70E94B96CC7
:101E10000C940C7B0C9400008150823108F05AC065
:101E2000E82FF0E08827E85EF04F8F4F0C94DE7AC1
:101E3000380F3C0F2A0F300F340F6A0F3F0F450F3A
:101E4000490F4F0F530F570F5D0F610F6A0F650F4B
:101E50006B0F6F0F809180008F77809380000895C3
:101E6000809180008F7DF9CF80918000877FF5CFB2
:101E700084B58F7784BD089584B58F7DFBCF809125
:101E8000B0008F778093B00008958091B0008F7D6F
:101E9000F9CF809190008F77809390000895809182
:101EA00090008F7DF9CF80919000877FF5CF809152
:101EB000A0008F778093A00008958091A0008F7D6F
:101EC000F9CF8091A000877FF5CF809120018F7797
:101ED000809320010895809120018F7DF9CF80911A
:101EE0002001877FF5CFCF93DF93282F30E0F901D2
:101EF000E251FB4E8491F901E855FB4ED491F90172
:101F0000EE59FB4EC491CC2399F0811185DFEC2F63
:101F1000F0E0EE0FFF1FE85BFB4EA591B491EC9152
:101F2000ED2381E090E009F480E0DF91CF91089506
:101F300080E090E0FACF1F93CF93DF93282F30E01B
:101F4000F901E251FB4E8491F901E855FB4ED49121
:101F5000F901EE59FB4EC491CC23A1F0162F81114B
:101F60005BDFEC2FF0E0EE0FFF1FE25DFB4EA59173
:101F7000B4918FB7F894EC91111108C0D095DE237D
:101F8000DC938FBFDF91CF911F910895DE2BF8CFA7
:101F9000CF93DF9390E0FC01E855FB4E24918E59DE
:101FA0009B4EFC0184918823D1F090E0880F991F0B
:101FB000FC01EC5EFB4EA591B491FC01E25DFB4E91
:101FC000C591D49161110EC09FB7F8948C91E22F06
:101FD000E0958E238C932881E223E8839FBFDF91D5
:101FE000CF9108958FB7F894EC91E22BEC938FBFCB
:101FF000F6CF1F93CF93DF93182FEB0161E0C8DF7B
:10200000209731F460E0812FDF91CF911F9193CF22
:10201000CF3FD10511F461E0F6CFE12FF0E0E251BE
:10202000FB4EE491E150E23108F0B3C0F0E08827C4
:10203000E35EFF4E8F4F0C94DE7A2F1037103C106A
:1020400046105010C9105A1062106A1074107E1099
:1020500088109710A110C910AB10B510BF1084B52F
:10206000806884BDC7BDDF91CF911F91089584B56D
:10207000806284BDC8BDF7CF809180008068809366
:102080008000D0938900C0938800EDCF80918000BC
:10209000806280938000D0938B00C0938A00E3CF4E
:1020A00080918000886080938000D0938D00C093E1
:1020B0008C00D9CF8091B00080688093B000C0932D
:1020C000B300D1CF8091B00080628093B000C09304
:1020D000B400C9CF80919000806880939000D09325
:1020E0009900C0939800BFCF809190008062809348
:1020F0009000D0939B00C0939A00B5CF8091900040
:10210000886080939000D0939D00C0939C00ABCFDB
:102110008091A00080688093A0008091A0008F7BB8
:102120008093A000D093A900C093A8009CCF809179
:10213000A00080628093A000D093AB00C093AA005F
:1021400092CF8091A00088608093A000D093AD00D2
:10215000C093AC0088CF80912001806880932001DB
:10216000D0932901C09328017ECF80912001806205
:1021700080932001D0932B01C0932A0174CF8091CA
:102180002001886080932001D0932D01C0932C0101
:102190006ACFC038D1050CF03ECF34CF3FB7F894AA
:1021A00080912F0490913004A0913104B0913204B9
:1021B00026B5A89B05C02F3F19F00196A11DB11DA2
:1021C0003FBFBA2FA92F982F8827BC01CD01620FDE
:1021D000711D811D911D42E0660F771F881F991F99
:1021E0004A95D1F708958F929F92AF92BF92CF9266
:1021F000DF92EF92FF926B017C01D0DF4B015C011B
:10220000C114D104E104F104B1F0C8DF68197909FF
:102210008A099B09683E73408105910588F321E096
:10222000C21AD108E108F10888EE880E83E0981EF2
:10223000A11CB11CE5CFFF90EF90DF90CF90BF9035
:10224000AF909F908F9008952FB7F89460912B04D2
:1022500070912C0480912D0490912E042FBF08952D
:10226000CF93DF93C091E80FD091E90F209749F108
:1022700020E030E0A9016091E40F7091E50F8091BA
:10228000E60F9091E70F0E94E6770E942A796E5F31
:102290007F4F24976C177D07A4F47093DB0F609336
:1022A000DA0FD2DF605E714B8F4F9F4F6093DC0F70
:1022B0007093DD0F8093DE0F9093DF0FDF91CF914E
:1022C00008951092DC0F1092DD0F1092DE0F109225
:1022D000DF0FF4CF8091E80F9091E90F86359105DB
:1022E00054F481E02091650A3091660A2630310568
:1022F0001CF480E0089581E00895CF93DF93C091AE
:10230000650AD091660A209721F16091610A709167
:10231000620A8091630A9091640A0E942A796E5F32
:102320007F4F24976C177D07A4F470931F0460936C
:102330001E048ADF605A75418F4F9F4F60932004BF
:10234000709321048093220490932304DF91CF9112
:1023500008951092200410922104109222041092E9
:102360002304F4CFCF93DF9310922404C0911B0277
:10237000D0911C022F971C161D0614F4D0E0C0E06B
:10238000D093E90FC093E80F6BDF1092660A1092AA
:10239000650AB3DFD093E90FC093E80F61DF1092B5
:1023A000EA0F2C981092660A1092650A1092670A3A
:1023B00080910201807280930001DF91CF91089596
:1023C0008F929F92AF92BF92CF92DF92EF92FF9245
:1023D0000F931F93CF93DF93B0E4A0E06A2F70E0D8
:1023E000AB014B0F511D55954795411119C0ECECB0
:1023F000F2E165917491072E000C880B990B0E94F5
:10240000EC73DF91CF911F910F91FF90EF90DF90D0
:10241000CF90BF90AF909F908F900895B42FE0CF52
:10242000A41711F0B41303C0E8ECF3E1E2CF9A0172
:1024300021503109220F331F220F331FF901E653B8
:10244000FD4EE590F490F901E253FD4EC591D49113
:102450008E159F051CF3A42FC817D9070CF4BECF07
:10246000F901E453FD4E05911491F901E053FD4E3D
:10247000C590D490BC016E197F09072E000C880B03
:10248000990B0E94EC734B015C01B601601B710B50
:10249000072E000C880B990B0E94EC739B01AC017A
:1024A000C501B4010E944B744B015C01BE016E1961
:1024B0007F09072E000C880B990B0E94EC739B017F
:1024C000AC01C501B4010E94C2786B017C01B80166
:1024D000110F880B990B0E94EC739B01AC01C70193
:1024E000B6010E94E6778DCFBC012091EB033091BD
:1024F000EC034091EB035091EC032417350731F4C2
:1025000081E02617370709F080E008959A01F1CF9E
:102510000000000082E08A950000E9F78091350410
:1025200080FF2DC089988FEF8093A103809135049F
:10253000869580FF27C08F9A8FEF8093A2038091AA
:1025400035048695869580FF20C080910B018270AE
:10255000809309018FEF8093A303809135048695C2
:102560008695869580FF19C016988FEF8093A403F7
:102570000000000082E08A950000E9F70895899A3A
:1025800081E0D2CF8F9881E0D8CF80910B018095E8
:1025900082708093090181E0DECF169A81E0E6CF58
:1025A00020911B0230911C022F5031098217930792
:1025B0000CF49C013093E90F2093E80F51CEAF92B9
:1025C000BF92CF92DF92EF92FF920F931F93CF9320
:1025D000DF93C4E7DFE00CEB1AE084E8A82E8FE07D
:1025E000B82EC12CD12C7601C3946991799189912F
:1025F00099910E94EA73288939894A895B890E94E6
:102600004B740E942F79F801619371938193919398
:102610008F01C616D706E806F90610F46B017C0197
:10262000AC16BD0611F76FEF7FEFCB01A701960146
:102630000E94AA772093CC0A3093CD0A4093CE0A09
:102640005093CF0ADF91CF911F910F91FF90EF90A0
:10265000DF90CF90BF90AF900895CF92DF92EF922E
:10266000FF928091510A882309F457C0C0904D0A07
:10267000D0904E0AE0904F0AF090500A20E030E0EF
:10268000A901C701B6010E94E673882309F445C079
:1026900020E030E040E05FE3C701B6010E944B74E8
:1026A0009B01AC010E944B742BED3FE049E450E4E8
:1026B0000E944B749B01AC0160E070E080E89FE3F6
:1026C0000E94C2786B017C01C0923D0AD0923E0A02
:1026D000E0923F0AF092400A60911D0270911E0242
:1026E000072E000C880B990B0E94EC732AE037ED43
:1026F00043E25CE30E944B74A70196010E944B7475
:10270000609345027093460280934702909348027B
:10271000FF90EF90DF90CF900895C12CD12C80E8EE
:10272000E82E8FE3F82ED0CF8091FA0F9091FB0F17
:10273000891B8F7019F490E080E008959091F70F55
:10274000992351F0833030F48FEF890F19F0809383
:10275000F70FF1CF1092F70F8091FB0F27E4829FC4
:10276000C00111248D51954FFC01208120FDE3CF44
:102770002091FB0F2F5F2F702093F80F3091FB0FEC
:102780002091F90F321304C02091F80F2093F90F14
:10279000089590916F0081E091FD02C080E008955E
:1027A00090916F009D7F90936F000895EFE6F0E0A9
:1027B0008081826080830895CF93C82FEADF94E000
:1027C000C99F90011124F901E251FC4F285A304F62
:1027D000D9014D915D916D917C91408351836283CC
:1027E000738391E09093ED03882311F0CF91DECFB6
:1027F000CF910895CF92DF92EF92FF92CF93DF9324
:10280000C82FC7DF94E0C99FE0011124FE01E85AF8
:10281000F04FC080D180E280F3808111C7DFCE52BB
:10282000D54FC701B6010E94EC73288139814A81D6
:102830005B810E944B74DF91CF91FF90EF90DF900E
:10284000CF900895CF92DF92EF92FF92CF93DF93D4
:10285000C82F9FDF94E0C99FE0011124FE01E251DF
:10286000FC4FC080D180E280F38081119FDFCE5287
:10287000D54FC701B6010E94EC73288139814A8186
:102880005B810E944B74DF91CF91FF90EF90DF90BE
:10289000CF900895CF92DF92EF92FF921F93CF9344
:1028A000DF9320911F02222309F48DC0EC011091C7
:1028B0008C0A10FF2CC0C0902002D0902102E09022
:1028C0002202F0902302288139814A815B81C7016D
:1028D000B6010E940C7A181624F4C882D982EA82C2
:1028E000FB82C0902C02D0902D02E0902E02F0903E
:1028F0002F02288139814A815B81C701B6010E947C
:10290000E67387FF04C0C882D982EA82FB8211FF86
:102910002CC0C0902402D0902502E0902602F090B6
:1029200027022C813D814E815F81C701B6010E9443
:102930000C7A181624F4CC82DD82EE82FF82C090DD
:102940003002D0903102E0903202F09033022C81BC
:102950003D814E815F81C701B6010E94E67387FF0A
:1029600004C0CC82DD82EE82FF8212FF2CC0C090B8
:102970002802D0902902E0902A02F0902B022885AC
:1029800039854A855B85C701B6010E940C7A181605
:1029900024F4C886D986EA86FB86C0903402D0909B
:1029A0003502E0903602F0903702288539854A8555
:1029B0005B85C701B6010E94E67387FF04C0C88625
:1029C000D986EA86FB86DF91CF911F91FF90EF9029
:1029D000DF90CF90089580919D0390919E03A091E8
:1029E0009F03B091A0038093400290934102A09373
:1029F0004202B093430280919B0390919C03909379
:102A00003F0280933E0208958091400290914102DE
:102A1000A0914202B091430280939D0390939E0344
:102A2000A0939F03B093A00380913E0290913F0238
:102A300090939C0380939B0384E690E090933F02E5
:102A400080933E0208954F925F926F927F928F9291
:102A50009F92AF92BF92CF92DF92EF92FF921F931D
:102A6000CF93DF93CDB7DEB760970FB6F894DEBF94
:102A70000FBECDBF182F81E0BDDE6B017C0180E071
:102A8000B9DE4B015C0180928F0390929003A0927B
:102A90009103B0929203C0929303D0929403E09278
:102AA0009503F092960382E0A5DE2B013C01409253
:102AB0009703509298036092990370929A038982C7
:102AC0009A82AB82BC82CD82DE82EF82F886498612
:102AD0005A866B867C8683E08DDE6D877E878F8746
:102AE000988B20E030E0A901C501B4010E940C7A66
:102AF00087FD6CC020E030E047E553E4C501B40138
:102B00000E94E67318160CF461C020E030E0A901C1
:102B1000C701B6010E940C7A87FD58C020E030E062
:102B20004AE553E4C701B6010E94E67318160CF497
:102B30004DC020E030E0A901C301B2010E944B74F6
:102B40002B013C0120E438ED48E65BE3C701B60108
:102B50000E944B74A50194010E94E677A3019201A3
:102B60000E94E6774B015C0120E030E0A9010E9461
:102B70000C7A87FD2BC020E030E047E553E4C50127
:102B8000B4010E94E67318160CF1A7019601C30167
:102B9000B2010E94E6776B017C0120E030E0A901E0
:102BA0000E940C7A87FD12C020E030E04AE553E431
:102BB000C701B6010E94E673181644F089829A8212
:102BC000AB82BC82CD82DE82EF82F8861E3FF9F4B2
:102BD00080E1FE013196ACEBBFE001900D928A9549
:102BE000E1F760960FB6F894DEBF0FBECDBFDF9160
:102BF000CF911F91FF90EF90DF90CF90BF90AF905B
:102C00009F908F907F906F905F904F90089524E0F9
:102C1000129FC0011124FC01E454F04FA1E0B0E088
:102C2000AC0FBD1F8A0F9B1FDC014D915D916D9113
:102C30007C914083518362837383D3CFCF92DF92A1
:102C4000EF92FF928091890A811105C0809136042C
:102C5000882309F485C080918E03659B79C08160CB
:102C600080938E039091030180918E0391FF72C037
:102C7000826080938E0380918E034B9B6DC0846035
:102C800080938E0380918E03359B68C0886080930B
:102C90008E03C090DE03C0FE0FC08091350480FF1C
:102CA0000BC080918E0380FF07C080913B0A81603A
:102CB00080933B0A80E080DDD12CF12CE12CD70100
:102CC000C601B695A7959795879580FF10C080910E
:102CD0003504869580FF0BC080918E0381FF07C06D
:102CE00080913B0A826080933B0A81E065DD82E04F
:102CF000F694E794D794C7948A95D1F7C0FE30C074
:102D0000809135048695869580FF2AC0809136048F
:102D100081110BC080918E0382FF07C080913B0A16
:102D2000846080933B0A82E047DD809136048823EB
:102D3000B9F080918E0383FF13C080913B0A8860B5
:102D400080933B0A82E0FF90EF90DF90CF9034CDEC
:102D50008E7F86CF8D7F8DCF8B7F92CF877F97CFD2
:102D6000FF90EF90DF90CF9008950F931F93809185
:102D70006C0A813011F568DA00918A0310918B0397
:102D800020918C0330918D03601B710B820B930B90
:102D900028EE33E040E050E00E94AA77609186037D
:102DA000709187038091880390918903620F731F4C
:102DB000841F951F1F910F9108956091680A70916B
:102DC000690A80916A0A90916B0AD6CF10926C0AB8
:102DD00010928A0310928B0310928C0310928D0331
:102DE0001092680A1092690A10926A0A10926B0A8D
:102DF0001092860310928703109288031092890321
:102E0000089580916C0A8130D9F08230B9F4ADDF39
:102E1000609386037093870380938803909389035C
:102E200081E080936C0A10DA60938A0370938B03BD
:102E300080938C0390938D0381E00895C7DFF0CFDA
:102E400080E0089580916C0A8150823068F410927D
:102E50006C0AFAD96093680A7093690A80936A0AC7
:102E600090936B0A81E0089580E008954F925F92FD
:102E70006F927F928F929F92AF92BF92CF92DF928A
:102E8000EF92FF92CF93DF9300D000D01F921F925A
:102E9000CDB7DEB79E838D83DB01CD90DD90ED90C5
:102EA000FC908091810A9091820AA091830AB0914E
:102EB000840A89839A83AB83BC839C01AD01C701DB
:102EC000B6010E94E5772B013C01AD81BE818D905A
:102ED0009D90AD90BC9080917D0A90917E0AA091CA
:102EE0007F0AB091800A8D839E83AF83B88727E1E4
:102EF00037EB41ED58EBC301B2010E940C7A87FD1C
:102F0000D1C027E030E04AE553E4C301B2010E949A
:102F1000E67318160CF4C6C02D813E814F8158858A
:102F2000C501B4010E94E5772B013C0127E137EB95
:102F300041ED58EB0E940C7A87FDB4C027E030E0E9
:102F400047E553E4C301B2010E94E67318160CF47E
:102F5000A9C020E030E0A9016D817E818F81988534
:102F60000E94E6772B013C0120E030E040E251E492
:102F70000E94E67387FF06C0412C512C30E2632E7D
:102F800031E4732E27E137EB41ED58E3C301B20181
:102F90000E94E5779B01AC01C501B4010E940C7A47
:102FA00087FD80C020E030E047E553E46D817E81FD
:102FB0008F8198850E94E6772B013C0120E030E06C
:102FC0004DE453E40E940C7A181634F4412C512C31
:102FD0002DE4622E23E4722E27E137EB41ED58E316
:102FE000C301B2010E94E6779B01AC01C501B401A7
:102FF0000E94E67318160CF455C020E030E0A901D9
:1030000069817A818B819C810E94E6774B015C010A
:1030100020E030E040E251E40E94E67387FF06C002
:10302000812C912C90E2A92E91E4B92E27E137EB67
:1030300041ED58E3C501B4010E94E5779B01AC0165
:10304000C701B6010E940C7A87FD2CC020E030E059
:103050004AE553E469817A818B819C810E94E677FD
:103060004B015C0120E030E040E553E40E940C7A23
:10307000181634F4812C912C80E5A82E83E4B82E08
:1030800027E137EB41ED58E3C501B4010E94E67733
:103090009B01AC0191E09983C701B6010E94E673E0
:1030A00018160CF41982898128960FB6F894DEBFA1
:1030B0000FBECDBFDF91CF91FF90EF90DF90CF900B
:1030C000BF90AF909F908F907F906F905F904F9048
:1030D0000895282F9091A30A833021F495FD0FC005
:1030E00094FD0FC0892F90E0B0E0A0E004C0B69539
:1030F000A795979587952A95D2F78170089581E0D5
:10310000089580E008952FEB280F2A3108F042C07F
:10311000E22FF0E080916D0A90916E0AA0916F0A03
:10312000B091700A04C0B695A795979587952A9592
:10313000D2F780FD02C081700895E651FD4FE08115
:10314000EE2329F18091560F9091570FE80FF92F38
:10315000F11D808190ED980F9A3030F08E3251F44D
:10316000818180538A3098F4F0938E0AE0938D0A1F
:1031700081E008958D3211F08B3249F4818190ED18
:10318000980F9A3088F38E3211F48281EACFF0E002
:10319000E0E0EACF80E00895B6DF882341F081E0E7
:1031A00020918D0A30918E0A232B09F480E0089536
:1031B000129A08955F9A80918B0A8E7F80938B0A72
:1031C0008A9A80918B0A8D7F80938B0A8091080167
:1031D000809581708093060180918B0A8B7F80930C
:1031E0008B0AE6CF9091C00095FFFCCF8093C6007C
:1031F0000895CF93DF93EC01FE01849121968823FB
:1032000011F0F0DFF9CFDF91CF910895CF93C82F60
:10321000CB01EFDF87E197E0ECDF88E097E0CC239C
:1032200011F08DE097E0E5DF8AE0CF91DBCF84E31A
:1032300097E0DFDF8CB16EE277E085FB882780F9CD
:10324000E5DF8091030168E277E086958170DEDF3B
:1032500089B162E277E083FB882780F9D7DF86B106
:103260006AE177E085FB882780F9D0CF0F931F9321
:10327000CF93DF938B01BDDFE8018991882311F0A3
:10328000B1DFFBCFDF91CF911F910F9108958FE2B6
:1032900093E0AFCFC82F66D8FADF8FE89DE1A9DFB2
:1032A00089EE93E030E6019729F0232F2A9500005C
:1032B000E9F7F9CFF89489EE93E038EE019729F019
:1032C000232F2A950000E9F7F9CF4CD8CC2319F029
:1032D00071DFA895FECF6CDFFCCF89E293E089CF48
:1032E000FCDF6091560F7091570F8DE39DE1BEDFBB
:1032F0008AE39DE17ECF0F931F93CF9381110FC07F
:10330000C42F8B01EADF80E595E073DFC80171DF30
:10331000CC2329F08AE0CF911F910F9163CFCF91F9
:103320001F910F91089580910403909105032FEF51
:103330003FEF981751F0E92FF0E0EC5FFC4F22814E
:1033400030E09F5F9F7790930503C90108958F92A6
:103350009F92AF92BF92CF92DF92EF92FF920F9324
:103360001F93CF93DF93B0E4A0E06A2F70E0AB012E
:103370004B0F511D55954795411119C0ECECF2E1E9
:1033800065917491072E000C880B990B0E94EC73C9
:10339000DF91CF911F910F91FF90EF90DF90CF9031
:1033A000BF90AF909F908F900895B42FE0CF4A17B1
:1033B00011F0B41303C0E8ECF3E1E2CF9A0121501D
:1033C0003109220F331F220F331FF901E653FD4E3F
:1033D000E590F490F901E253FD4EC591D4918E151C
:1033E0009F051CF3A42FC817D9070CF4BECFF90111
:1033F000E453FD4E05911491F901E053FD4EC59043
:10340000D490BC016E197F09072E000C880B990B14
:103410000E94EC734B015C01B601601B710B072E1F
:10342000000C880B990B0E94EC739B01AC01C50149
:10343000B4010E944B744B015C01BE016E197F09FF
:10344000072E000C880B990B0E94EC739B01AC01BA
:10345000C501B4010E94C2786B017C01B801110F53
:10346000880B990B0E94EC739B01AC01C701B6015C
:103470000E94E6778DCFCF93DF93C0EEDFE08A81A5
:103480009B8165DF6C837D838E839F83CDE5DAE04E
:103490008A819B810E94E0116C837D838E839F8350
:1034A000A89510922504DF91CF910895CF92DF92D5
:1034B000EF92FF920F931F93CF93DF93CDB7DEB7B9
:1034C000A0970FB6F894DEBF0FBECDBF6115710592
:1034D0008105910571F100E0C42ED12CF12CE12C75
:1034E000A70196010E94AA7711E0100FE1E0F0E039
:1034F000EC0FFD1FE00FF11D07FDFA956083B90188
:10350000CA01012F611571058105910549F7115017
:1035100000F1E1E0F0E0EC0FFD1FE10FF11D17FD00
:10352000FA95908187E39A3008F480E3890F5ADE98
:10353000EECF80E3A0960FB6F894DEBF0FBECDBFEE
:10354000DF91CF911F910F91FF90EF90DF90CF907F
:1035500049CEA0960FB6F894DEBF0FBECDBFDF9167
:10356000CF911F910F91FF90EF90DF90CF90089532
:10357000CF92DF92EF92FF926B017C01F7FE0AC0BF
:103580008DE230DEF094E094D094C094C11CD11C44
:10359000E11CF11C4AE0C701B601FF90EF90DF90FB
:1035A000CF9084CF0F931F93CF93C82F8B0180911F
:1035B0004402882371F06BDEC8011BDE8EE892E1C5
:1035C00018DEC11113C060E070E0CB01D1DF8AE0EA
:1035D00009DE0E94B2118091FA0381110BC081E0D3
:1035E0008093FA031092440280E054DE8AE892E16C
:1035F00000DEEDCFCF911F910F9108954F925F9212
:103600006F927F928F929F92AF92BF92DF92EF92D2
:10361000FF920F931F93CF93DF937C015B01D22E18
:10362000C1E0D0E0211102C0D0E0C0E0FA0140804A
:10363000518062807380CC0FDD1FCC0FDD1FCE0167
:103640008E52904F4C01A3019201FC016081718167
:10365000828193810E94E673882399F0F40140826D
:103660005182628273829924939420E030E0A90110
:10367000C301B2010E940C7A18160CF0912CF701CC
:103680009482F70184818230C1F0833009F45DC0F7
:103690008130E1F5FE01EE52F04F2081318142810F
:1036A0005381F50160817181828193810E94E6736B
:1036B00087FD2CC082E0F7018483CE52D04F20E0FA
:1036C00030E040E850E4688179818A819B810E94E2
:1036D000E5779B01AC01F501608171818281938165
:1036E0000E940C7A87FD22C00E9424114B015C01CC
:1036F0009801A8EEB3E00E94D677860E971EA81E0A
:10370000B91EF70180829182A282B382DF91CF91AC
:103710001F910F91FF90EF90DF90BF90AF909F901F
:103720008F907F906F905F904F9008950E9424112A
:10373000F7010081118122813381601B710B820BA3
:10374000930B97FDE3CF83E084834FE65DE16FE762
:103750007DE18D2DDF91CF911F910F91FF90EF9023
:10376000DF90BF90AF909F908F907F906F905F9011
:103770004F9018CF2F923F924F925F926F927F920D
:103780008F929F92AF92BF92CF92DF92EF92FF9271
:103790000F931F93CF93DF93CDB7DEB763970FB629
:1037A000F894DEBF0FBECDBF80912504811119C0F2
:1037B00063960FB6F894DEBF0FBECDBFDF91CF91F9
:1037C0001F910F91FF90EF90DF90CF90BF90AF903F
:1037D0009F908F907F906F905F904F903F902F9031
:1037E000089549DE0E9424116B017C0160911B0247
:1037F00070911C02072E000C880B990B0E94EC7331
:103800004B015C0120E030E0A9016091E40F709170
:10381000E50F8091E60F9091E70F0E94E677A501F2
:1038200094010E940C7A18160CF437C26091E80FCC
:103830007091E90F072E000C880B990B0E94EC7316
:1038400069837A838B839C8308E210E020E0AE01D9
:103850004F5F5F4F64EE7FE089E194E0CFDE409000
:10386000E40F5090E50F6090E60F7090E70F6091C5
:10387000190270911A02072E000C880B990B0E94F6
:10388000EC739B01AC01C301B2010E940C7A1816C3
:103890000CF00CC1A3019201C501B4010E940C7A85
:1038A00018160CF003C16091E80F7091E90F6115D3
:1038B000710509F457C2072E000C880B990B0E9462
:1038C000EC73A30192010E94E5774B015C0120E0BB
:1038D00030E040E251EC0E94E67387FD43C220E0F5
:1038E00030E040E251E4C501B4010E940C7A1816A0
:1038F0000CF44EC280910F0481114FC22091070435
:10390000309108044091090450910A042D833E83AC
:103910004F83588780910B0490910C04A0910D0463
:10392000B0910E0489879A87AB87BC87A301920167
:103930006091FB037091FC038091FD039091FE0365
:103940000E94E5772091F30F3091F40F4091F50F2D
:103950005091F60F0E944B742D813E814F81588506
:103960000E94E57720ED3CEC4CE45DE30E944B7453
:103970002D813E814F8158850E94E6776D837E833D
:103980008F839887609307047093080480930904D9
:1039900090930A042091EF0F3091F00F4091F10FB6
:1039A0005091F20F2D873E874F87588B29853A8596
:1039B0004B855C85C501B4010E94E6771B018C0133
:1039C00020E030E0A9010E94E67387FDF1C12D855A
:1039D0003E854F85588960E070E08FE793E40E9450
:1039E000C2786987798B8A8B9B8B9101A8010E9491
:1039F000E67387FF04C0298439880A891B89C101BD
:103A0000D80180930B0490930C04A0930D04B09301
:103A10000E042091EB0F3091EC0F4091ED0F50917F
:103A2000EE0FC501B4010E944B744B015C01809202
:103A3000FF0390920004A0920104B092020491014D
:103A4000A8016D857E858F8598890E944B749B01A6
:103A5000AC01209303043093040440930504509375
:103A60000604C501B4010E94E6772D813E814F8195
:103A700058850E94E67720E030E0A9010E94E677B1
:103A80004B015C0120E030E0A9010E94E67387FD54
:103A90006CC120E030E04FE753E4C501B4010E945F
:103AA0000C7A18160CF06BC16FE760C160E0609390
:103AB000EA0F8091DC0F9091DD0FA091DE0FB091A5
:103AC000DF0F0097A105B10549F1A7019601281B59
:103AD000390B4A0B5B0BDA01C901B7FD1FC020E0AF
:103AE00030E0A901C301B2010E94E6772B013C013D
:103AF0006091DA0F7091DB0F90E080E00E94EA7332
:103B00009B01AC01C301B2010E94E67387FFFBC0B9
:103B10004CEA52E16BEB72E180E044DD20E030E002
:103B200046E153E46091610A7091620A8091630AF0
:103B30009091640A0E940C7A18160CF4A7C0809128
:103B4000200490912104A0912204B09123040097B5
:103B5000A105B10541F1A7019601281B390B4A0BBC
:103B60005B0BDA01C901B7FD1EC04090610A50909D
:103B7000620A6090630A7090640A60911E047091FA
:103B80001F0490E080E00E94EA739B01AC01C30136
:103B9000B2010E94E67387FF87C04CEA52E16BEBEB
:103BA00072E18FEFFFDC8091150490911604A091D3
:103BB0001704B0911804A7019601281B390B4A0B72
:103BC0005B0BDA01C901B7FDF3CD38E8C30E33E171
:103BD000D31EE11CF11CC0921504D0921604E09291
:103BE0001704F09218046091650A7091660A072E16
:103BF000000C880B990B0E94EC7369837A838B838A
:103C00009C8304E110E02FEFAE014F5F5F4F61E650
:103C10007AE080E194E0F2DCC090610AD090620A20
:103C2000E090630AF090640A20E030E040EA50E45B
:103C3000C701B6010E940C7A87FD20C020E030E069
:103C400046E153E4C701B6010E94E6731816B4F0CA
:103C50006091650A7091660A072E000C880B990B1B
:103C60000E94EC739B01AC01C701B6010E94E67390
:103C700087FD8CC080E08093670A9ACD1092670A16
:103C80008091020180728093000192CD4FE65DE148
:103C90006FE77DE18FEF86DC52CF4FE65DE16FE7A6
:103CA0007DE180E07FDCC2CDA090650AB090660A1D
:103CB000A114B104F9F0C301B2010E942A796E5F28
:103CC0007F4F34E0A31AB1086A157B059CF470930A
:103CD0001F0460931E040E942411605A75418F4F87
:103CE0009F4F60932004709321048093220490934B
:103CF000230459CF10922004109221041092220420
:103D00001092230450CFA090E80FB090E90FA114B7
:103D1000B104F9F0C301B2010E942A796E5F7F4FAE
:103D200034E0A31AB1086A157B059CF47093DB0F8D
:103D30006093DA0F0E942411605E714B8F4F9F4F8A
:103D40006093DC0F7093DD0F8093DE0F9093DF0F95
:103D5000E5CE1092DC0F1092DD0F1092DE0F109264
:103D6000DF0FDCCE81E080930F0460E04092FB0324
:103D70005092FC036092FD037092FE0398CEC50141
:103D8000B4010E942A7975956795F0CF8FE773CFBC
:103D900081E080930F046FE7E9CF10920F0419863A
:103DA0001A861B861C861D821E821F821886BECD27
:103DB000212C312C00E010E022CECF92DF92EF9246
:103DC000FF926B017C0183E3C816D104E104F10486
:103DD00068F082E3C81AD108E108F10862E370E0F4
:103DE00080E090E00E94F310C5DCEDCFC701B60182
:103DF0000E94F310FF90EF90DF90CF90BBCC8091AA
:103E0000890A811104C080913604882329F062E078
:103E100070E080E090E0D1CF0895CF92DF92EF92F2
:103E2000FF92CF93DF93EC01C880D980EA80FB80BA
:103E300080E892E1DED9C701B6019ADBCC80DD8053
:103E4000EE80FF8088E59DE1D4D9C701B60190DB03
:103E5000C884D984EA84FB8484E59DE1CAD9C7017A
:103E6000B60186DB8AE0DF91CF91FF90EF90DF9083
:103E7000CF90B8C9CF93DF93EB01BBD9BE01DD0F63
:103E8000880B990BDF91CF9173CB8F929F92AF925A
:103E9000BF92CF92DF92EF92FF92CF936B017C01A2
:103EA000B42E20E030E0A9010E94E67387FF06C02F
:103EB0008DE298D9F7FAF094F7F8F094C0E060E05A
:103EC00070E080E09FE3CB1541F02DEC3CEC4CEC36
:103ED0005DE30E944B74CF5FF6CF9B01AC01C7013D
:103EE000B6010E94E6776B017C010E942F794B019D
:103EF0005C014AE0DBDACC2381F1C501B4010E9408
:103F0000EA739B01AC01C701B6010E94E5776B0122
:103F10007C018EE267D9C15000F120E030E040E240
:103F200051E4C701B6010E944B744B015C010E9431
:103F30002A796B01770FEE08FF08C701B60118DB7D
:103F4000C701B6010E94EC739B01AC01C501B4012D
:103F50000E94E5776B017C01DECFCF91FF90EF905F
:103F6000DF90CF90BF90AF909F908F900895CF92A9
:103F7000DF92EF92FF926A017B013BD942E0C701D9
:103F8000B601FF90EF90DF90CF907FCF882379F13B
:103F9000A4D94091880F5091890F60918A0F709138
:103FA0008B0F88E69DE1E3DF40918C0F50918D0FE0
:103FB00060918E0F70918F0F85E69DE1D8DF409163
:103FC000900F5091910F6091920F7091930F82E634
:103FD0009DE1CDDF4091940F5091950F6091960F28
:103FE0007091970F8FE59DE1C2DF8AE0FBC880E208
:103FF000F9D8CFCF4F925F926F927F928F929F921C
:10400000AF92BF92CF92DF92EF92FF92CF93DF9366
:10401000CDB7DEB72C970FB6F894DEBF0FBECDBF7D
:10402000C090C80FD090C90FE090CA0FF090CB0F8E
:1040300020916C0F30916D0F40916E0F50916F0F6A
:104040006091C00F7091C10F8091C20F9091C30F0A
:104050000E94E6772B013C012091700F3091710F87
:104060004091720F5091730F6091C40F7091C50F02
:104070008091C60F9091C70F0E94E6774B015C01BB
:104080002091680F3091690F40916A0F50916B0F2A
:104090006091BC0F7091BD0F8091BE0F9091BF0FCA
:1040A0000E94E677AB01BC018CE59DE160DFB301C6
:1040B000A20188E59DE15BDFB501A40184E59DE1F6
:1040C00056DFB701A60180E59DE151DF0E94C913CB
:1040D0009CE0E8E5FFE0DE01119601900D929A95D3
:1040E000E1F781110E94D613CE01019696DE2C963F
:1040F0000FB6F894DEBF0FBECDBFDF91CF91FF901A
:10410000EF90DF90CF90BF90AF909F908F907F9077
:104110006F905F904F9008956DCFEF92FF920F9345
:104120001F93CF937C018B01C2E44F3F09F0C4E59C
:1041300080E258D88C2F56D88AE354D8F701608192
:1041400071818281938142E0A0DEF801408151813A
:104150006281738188E094E10ADF62E070E080E0D0
:1041600090E0CF911F910F91FF90EF900C94F3107E
:104170001F93CF93DF9300D000D01F921F92CDB733
:10418000DEB7182F6091E80F7091E90F072E000C31
:10419000880B990B0E94EC736D837E838F839887C5
:1041A00020E030E0A9016091E40F7091E50F80916B
:1041B000E60F9091E70F0E94E67769837A838B83FD
:1041C0009C834BEFBE016B5F7F4FCE010196A5DF55
:1041D0006091650A7091660A072E000C880B990B96
:1041E0000E94EC736D837E838F8398878091610A30
:1041F0009091620AA091630AB091640A89839A83BC
:10420000AB83BC834FEFBE016B5F7F4FCE01019646
:1042100084DF6091670A1F3F39F087E11802F001DF
:104220001124E052F04F628570E080E194E122DEDB
:104230006091670A70E08BE094E11CDE28960FB66F
:10424000F894DEBF0FBECDBFDF91CF911F910895CF
:104250008F929F92AF92BF92CF92DF92EF92FF9296
:104260000F931F93CF93DF93C82FD0E08E01000FE1
:10427000111F000F111FF801EF5BF54F8080918037
:10428000A280B380F801EF58F54FC080D180E28062
:10429000F3800859104FA7019601C501B4010E948F
:1042A000E677F80160837183828393838091550F51
:1042B00085FF1FC0BE01685A7F4F8AE298E0DADDB1
:1042C000B501A4018AE198E052DEB701A60187E0BA
:1042D00098E04DDE8AE0DF91CF911F910F91FF9022
:1042E000EF90DF90CF90BF90AF909F908F900C9405
:1042F000F218DF91CF911F910F91FF90EF90DF9017
:10430000CF90BF90AF909F908F9008951F93CF93C1
:10431000DF93C82FD1E0D827811102C00E946D1908
:1043200081EF96E00E94F9188BEE96E00E94F91852
:104330008AE00E94F2188AE00E94F2181091510A55
:10434000C11112C00E946D1980E595E00E94F91814
:1043500088ED96E00E94F918112309F4B7C18AE0AC
:104360000E94F2180E946D1940914D0A50914E0A18
:1043700060914F0A7091500A84EC96E0F8DD8AE073
:104380000E94F218111108C0C11102C00E946D19DB
:1043900089EB96E00E94F91841E069EA76E08C2FFB
:1043A0000E947B198D2FF2DD41E06CE876E08C2FC6
:1043B0000E947B19C11102C00E946D194091980F93
:1043C0005091990F60919A0F70919B0F83E896E03E
:1043D000CEDD40919C0F50919D0F60919E0F70918A
:1043E0009F0F85E69DE1C3DD4091A00F5091A10F85
:1043F0006091A20F7091A30F82E69DE1B8DD40911C
:10440000A40F5091A50F6091A60F7091A70F8FE593
:104410009DE1ADDD8AE00E94F21841E062E676E0BF
:104420008C2F0E947B19C11102C00E946D196091EE
:10443000740F7091750F8091760F9091770F0E9495
:10444000EA73AB01BC0189E596E091DD6091780FDC
:104450007091790F80917A0F90917B0F0E94EA738F
:10446000AB01BC0185E69DE182DD60917C0F70911E
:104470007D0F80917E0F90917F0F0E94EA73AB01B8
:10448000BC0182E69DE173DD6091800F7091810F28
:104490008091820F9091830F0E94EA73AB01BC015F
:1044A0008FE59DE164DD8AE00E94F21841E060E161
:1044B00076E08C2F0E947B19C11102C00E946D19F9
:1044C0004091A80F5091A90F6091AA0F7091AB0F66
:1044D00087E096E04CDD4091AC0F5091AD0F6091BC
:1044E000AE0F7091AF0F84E096E041DD4091B00FC8
:1044F0005091B10F6091B20F7091B30F88ED97E1B9
:1045000036DD8AE00E94F21841E060EB75E08C2F06
:104510000E947B19C11102C00E946D196091840F25
:104520007091850F8091860F9091870F0E94EA739A
:10453000AB01BC0187EA95E01ADD4091B40F5091C0
:10454000B50F6091B60F7091B70F84EA95E00FDD5B
:104550004091B80F5091B90F6091BA0F7091BB0F95
:1045600088ED97E104DD4091A80A5091A90A609175
:10457000AA0A7091AB0A81EA95E0F9DC8AE00E9410
:10458000F21841E064E975E08C2F0E947B19C1119B
:1045900002C00E946D194091410A5091420A6091F7
:1045A000430A7091440A8BE895E0E1DC4091450AAA
:1045B0005091460A6091470A7091480A85E69DE14C
:1045C000D6DC4091490A50914A0A60914B0A709199
:1045D0004C0A82E69DE1CBDC8AE00E94F21841E0C1
:1045E0006DE775E08C2F0E947B19C11102C00E94FB
:1045F0006D194091EB0F5091EC0F6091ED0F7091A0
:10460000EE0F84E795E0B3DC2CEA35EC47E25EE39D
:104610006091EF0F7091F00F8091F10F9091F20F78
:104620000E94C278AB01BC0181E795E0A0DC2CEAD6
:1046300035EC47E25EE36091F30F7091F40F8091E7
:10464000F50F9091F60F0E944B74AB01BC018EE602
:1046500095E08DDC8AE00E94F21840E06FE575E09D
:104660008C2F0E947B19C1110AC08BEE96E00E942C
:10467000F91883E595E00E94F9180E946D194091A0
:104680007D0A50917E0A60917F0A7091800A86E5CA
:1046900095E06DDC4091810A5091820A6091830A15
:1046A0007091840A85E69DE162DC4091850A509113
:1046B000860A6091870A7091880A82E69DE157DC3C
:1046C0008AE0DF91CF911F910C94F2188DEC96E067
:1046D0000E94F91847CECF92DF92EF92FF920F938C
:1046E0001F93CF93DF936C017B01EA01C9010E9404
:1046F000F918F601408151816281738186E393E06C
:1047000036DCF701408151816281738185E69DE14C
:104710002EDC488159816A817B8182E69DE127DC1C
:104720000115110559F0C801DF91CF911F910F912B
:10473000FF90EF90DF90CF900C94F9188AE0DF9112
:10474000CF911F910F91FF90EF90DF90CF900C943D
:10475000F2180F931F939B018A01AC01485F5F4FD2
:10476000BC016C5F7F4FB7DF1F910F9108958DE003
:104770000E94F2188AE00C94F2188091040380934E
:10478000050381E593E00E94F9186091CE0F7091C6
:10479000CF0F8091D00F9091D10F6F5F7F4F8F4FD0
:1047A0009F4F0E94B81AE3DFE0913C0AF0E0E05F1F
:1047B000FF4E8081882339F087E296E10E94F91844
:1047C0008AE00C94F2180895CF93DF93EC010E94D5
:1047D0004719CE010E94F9186091CE0F7091CF0F4A
:1047E0008091D00F9091D10F0E94B81AC0DF0E9423
:1047F00093190196E1F7C1DF1092CD0F1092CC0F03
:10480000DF91CF9108950F931F93CF938C01C62F03
:104810008CE493E00E94F918C8010E94F9188AE319
:104820000E94F2186C2F70E090E080E00E94B81AAD
:10483000CF911F910F919BCFCF93DF93EC01899183
:10484000882319F00E94F218FACFDF91CF918FCF11
:104850004F925F926F927F928F929F92AF92BF9290
:10486000CF92DF92EF92FF920F931F93CF93DF933C
:10487000CDB7DEB76A970FB6F894DEBF0FBECDBFD7
:104880009A8F898F5B018A01DC01D6966D917D91AB
:104890008D919C91D9970E94EA736B017C01F5017F
:1048A00020813181428153810E944B740E94AC78F7
:1048B0002B013C01D8012D913D914D915C91C70197
:1048C000B6010E944B740E94AC784B015C01C3019D
:1048D000B2010E942F79698B7A8B8B8B9C8B683706
:1048E00071058105910540F428E730E040E050E093
:1048F000298B3A8B4B8B5C8BC501B4010E942F79BD
:104900006D877E878F87988B683771058105910544
:1049100040F488E790E0A0E0B0E08D879E87AF8705
:10492000B88BE98DFA8DEE5BFF4F2081318142819A
:10493000538129833A834B835C83CA01B9010E9466
:10494000EC732B013C0169897A898B899C890E94CF
:10495000EA7369877A878B879C8720E030E0A9011A
:10496000C301B2010E94E673882309F43BC1A70189
:104970009601C701B6010E944B744B015C01298569
:104980003A854B855C85CA01B9010E944B749B0135
:10499000AC01C501B4010E94E5774B015C01A301A4
:1049A0009201C301B2010E94E6779B01AC01C501EF
:1049B000B4010E94C2780E94AC780E942F796D8366
:1049C0007E838F83988769817A818B819C81909582
:1049D0008095709561957F4F8F4F9F4F0E94EC732C
:1049E0004B015C016D857E858F8598890E94EA73F5
:1049F00069837A838B839C8320E030E0A901C50121
:104A0000B4010E94E673882309F4F0C029813A8139
:104A10004B815C81CA01B9010E944B746D8B7E8B06
:104A20008F8B988FA7019601C701B6010E944B7426
:104A30009B01AC016D897E898F89988D0E94E577F5
:104A40006B017C01A5019401C501B4010E94E677C8
:104A50009B01AC01C701B6010E94C2780E945B793C
:104A6000A98DBA8D95968D909D90AD90BC9098979C
:104A7000750164012D813E814F815885C21AD30A88
:104A8000E40AF50A0E942F79C61AD70AE80AF90A39
:104A9000F7FE6EC020E030E0A901C301B2010E9420
:104AA000E673882309F4A6C0C501B4010E94EA7325
:104AB0006B017C01A3019201C301B2010E94E67760
:104AC0009B01AC01C701B6010E944B746B017C01D4
:104AD00029853A854B855C85CA01B9010E944B74D2
:104AE0009B01AC01C701B6010E94E5776B017C0117
:104AF00029813A814B815C81CA01B9010E944B74C2
:104B00009B01AC01C701B6010E94E6776B017C01F5
:104B100020E030E040E850E4C301B2010E944B7451
:104B20009B01AC01C701B6010E94C2780E94AC781B
:104B30006B017C0120E030E0A9010E940C7A18167C
:104B40001CF0C12CD12C7601C701B6010E942F792F
:104B50006D837E838F83988786169706A806B9068D
:104B600020F48D829E82AF82B886C12CD12C760132
:104B70008D819E81AF81B885E98DFA8D81A792A73D
:104B8000A3A7B4A7C80ED91EEA1EFB1EC5A6D6A6AB
:104B9000E7A6F0AA29893A894B895C8922AF33AF0D
:104BA00044AF55AFFE962D853E854F8558892083AD
:104BB0003183428353836A960FB6F894DEBF0FBEEB
:104BC000CDBFDF91CF911F910F91FF90EF90DF90BC
:104BD000CF90BF90AF909F908F907F906F905F909D
:104BE0004F90089560E070E0CB01E5CE60E070E0AA
:104BF000CB0134CF60E070E0CB0198CFFF920F93F0
:104C00001F93CF93DF931F92CDB7DEB7F82E0AE93B
:104C100011E041E050E0B801CE0101960E947C73A2
:104C200089818F1108C081E00F90DF91CF911F9192
:104C30000F91FF9008950F5F1F4F81E0033B18070E
:104C400041F780E0F1CF4F925F926F927F92AF92E7
:104C5000BF92CF92DF92EF92FF920F931F93CF9369
:104C6000DF931092530A1092520A2FE32093A60A60
:104C70001092A50A1092A40A10926D0A10926E0A60
:104C800010926F0A1092700A9C01E90198812F5FBF
:104C90003F4F9032D1F39E34C9F4898190ED980F43
:104CA0009A3020F08D3211F08B3281F422969E01E1
:104CB0002F5F3F4F888180538A3008F470C09E0177
:104CC0002F5F3F4F8881803209F46BC0D093570F1C
:104CD000C093560F7E012FEFE21AF20A18816AE2A2
:104CE00070E0C7010E94E67A009731F0FC0131972D
:104CF00080818032E1F311821D3421F0143511F0EE
:104D00001734F1F5F70180819FEFE91AF90A803233
:104D1000C9F380538A30A0F51093A60A90E080E092
:104D2000AAE0AF014F5F5F4F2081022E000C330BD2
:104D300020533109A89FB001A99F700D1124C9010A
:104D4000860F971FFA01208120532A3050F3909349
:104D5000A50A8093A40ADF0131962C912032D9F361
:104D60001D3459F58E31910539F0ECF487319105F8
:104D700019F08C31910509F5B093530AA093520AAA
:104D8000DF91CF911F910F91FF90EF90DF90CF9027
:104D9000BF90AF907F906F905F904F900895E90122
:104DA00086CFE9018CCF853791053CF08737910597
:104DB0001CF3803AE3E09E07F9F240E050E0BA01CC
:104DC00030E020E0C12CD12C7601C394FD01319656
:104DD0000C91002309F48CC00132F1F41D34E1F48C
:104DE00080329105C9F440936D0A50936E0A609326
:104DF0006F0A7093700AF093530AE093520A63E2C9
:104E000070E0CF010E94E67A009709F4B9CFFC0167
:104E10001082B6CFDF01DACF01540A3108F063C047
:104E2000DF01BD90D0E2AD2EBA1499F0A0EDAB0D2C
:104E3000AA3008F1AEE2BA120EC0A181A053AA3086
:104E4000D0F02115310519F49F0121503109B12C01
:104E500016C0FD01E5CFADE2AA2EBA1419F0ABE2FF
:104E6000BA12EFCFA181B0EDBA0FBA3020F0AE3256
:104E700041F7A281E3CFBE2EBC1A309741F3A02F99
:104E8000B0E02601370104C0440C551C661C771C99
:104E90000A95D2F74429552966297729A651BD4F8D
:104EA000BC92A081A154AA3108F4B4CFDF010191D2
:104EB000002309F48BCFD0EDBD2EB00ED9E0AD2E7E
:104EC000AB14A0F7D3EDBD2EB00EAA24A394AB145F
:104ED00068F70B3259F3FD0131960C91003209F05D
:104EE00075CFDF01F8CF21153105D9F69D01D9CF56
:104EF0003093530A2093520A40936D0A50936E0ADE
:104F000060936F0A7093700A3BCF80918D0A9091E5
:104F10008E0A009731F04AE050E070E060E00C94B7
:104F2000497160E070E0CB010895CF93DF93EB010E
:104F30000E94CC18882311F0E8DFEB01CE01DF914D
:104F4000CF910895E2DF97FD0AC0DFDF6F3F710563
:104F50008105910509F02CF4D8DF862F089580E0B3
:104F600008958FEF08950E94CC188111EBCF80E057
:104F70000895CF9384E50E94CC18C0E08823F1F017
:104F8000E1DFC82F1816D4F40E946D198DE40E9439
:104F9000F2186091A40A7091A50A072E000C880BE4
:104FA000990B0E94B81A6C2FCC0F770B89E393E012
:104FB0000E943A1F8AE00E94F218CFEF8C2FCF9107
:104FC000089580918D0A90918E0A892B39F0BADF6D
:104FD00091E0811101C090E0892F089591E0FCCF0C
:104FE000CF93DF93C82FD62F0E94CC18882319F0B7
:104FF000DF91CF91E6CF8C2F0E948318811101C0E1
:105000008D2FDF91CF9108950F931F93CF938091B0
:105010008D0A90918E0A0097E9F0FC018F01C191F1
:105020002C2F2F7D81F0C53411F0C536B9F7F8016A
:10503000108270E060E00E94F46FF801C083CF91AD
:105040001F910F91089570E060E0CF911F910F9133
:105050000C94F46F60E070E0CB01F1CF86E40E9425
:10506000831880932404882349F0CEDF60930802DC
:105070007093090280930A0290930B0283E50E94C9
:105080008318882349F0C0DF6093040270930502FF
:10509000809306029093070282E40E94831888237B
:1050A00049F0B2DF60930002709301028093020224
:1050B0009093030208952F923F924F925F926F92C6
:1050C0007F928F929F92AF92BF92CF92DF92EF9298
:1050D000FF920F931F93CF93DF93CDB7DEB7EE9779
:1050E0000FB6F894DEBF0FBECDBF70E060E085E480
:1050F0001CDF8823E1F089EA94E0EE960FB6F8947D
:10510000DEBF0FBECDBFDF91CF911F910F91FF90FA
:10511000EF90DF90CF90BF90AF909F908F907F9057
:105120006F905F904F903F902F900C94F91865E02E
:1051300070E083E4FADE782E60E085E551DF8AAF27
:1051400083E50E94CC18882351F15EDF0E942A7902
:10515000072E000C880B990B0E94EC736D837E83E5
:105160001C010E9424116D877E878F87988B609128
:105170001B0270911C026F507109072E000C880BE6
:10518000990B0E94EC739B01AC016D817E81C10182
:105190000E940C7A181644F48EE794E0AECF60E0DB
:1051A00070E086E193E4D2CF2D853E854F85588906
:1051B000205E314B4F4F5F4F2EAB3FAB48AF59AFE7
:1051C0008AE694E00E94F9180E94B2118FE780935A
:1051D000EA0F81E080933D028D859E85AF85B88979
:1051E0008CA39DA3AEA3BFA38DA79EA7AFA7B8AB6B
:1051F0002FE730E040E050E02F83388749875A8717
:1052000018A219A21AA21BA21C8E1D8E1E8E1F8E02
:10521000812C912C5401198230E43D8B4CE14E8B52
:1052200056E45F8B188E198E1A8E1B8E19AA8AAAC5
:105230009BAAACAABDAAFFE7CF2ED12CE12CF12C62
:1052400018A619A61AA61BA681E0898B1C861B86A8
:1052500000E010E01DAE1EAE472C770C55085CAE8A
:105260004BAE0E9424112B013C01209125042CA758
:10527000222309F46BC00E943B1A0091E40F1091A5
:10528000E50F3091E60F3DAF4091E70F4EAF288D0F
:10529000398D4A8D5B8DB8018DAD9EAD0E940C7A23
:1052A000181634F4088F198F5DAD5A8F8EAD8B8F21
:1052B00029813D894E895F89B8018DAD9EAD0E94DF
:1052C000E67387FF06C009831D8B9DAD9E8BAEAD37
:1052D000AF8BB98998014DAD5EAD6D817E81C10105
:1052E000BB2309F49BC10E94E67387FF2FC0B30163
:1052F000A2018CA19DA1AEA1BFA1481B590B6A0BB5
:105300007B0BDB01CA0188589341A109B109B7FDA4
:105310001DC08F819885A985BA858C199D09AE0914
:10532000BF09B595A795979587958093EA0F48A7EC
:1053300059A76AA77BA79D81988FAE81A98F2A8ED6
:105340003B8E4D865E866F86788A198A20E030E033
:1053500040EF51E46D817E81C1010E94E6779801A2
:105360004DAD5EAD0E94E67387FF37C086EF93E0D8
:105370000E94F918EE960FB6F894DEBF0FBECDBFAF
:10538000DF91CF911F910F91FF90EF90DF90CF9021
:10539000BF90AF909F908F907F906F905F904F9055
:1053A0003F902F900C94B2115BEEC52ED12CE12CC6
:1053B000F12C8BC124E130E040E050E02F833887AE
:1053C00049875A8744E1C42ED12CE12CF12C8BC1A2
:1053D000CF82D886E986FA8686C1D301C2012DA57F
:1053E0003EA54FA558A9821B930BA40BB50BB7FD87
:1053F00048C080E00E94B8208AE00E94F218D301E1
:10540000C2018053984FAF4FBF4F8DA79EA7AFA744
:10541000B8AB99A9911167C02AA93BA94CA95DA96C
:10542000B8018DAD9EAD0E940C7A18160CF047C0E5
:1054300020E030E040E050E4B8018DAD9EAD0E9428
:10544000E6776AAB7BAB8CAB9DABA3019201205E90
:10545000314B4F4F5F4F2EAB3FAB48AF59AF20E0C2
:1054600030E040EC50E46D817E81C1010E94E5771F
:1054700098014DAD5EAD0E94E673881F8827881F96
:1054800089ABD301C201880F991FAA1FBB1F4D858D
:105490005E856F8578894CA05DA06EA07FA0440DCD
:1054A000551D661D771D841B950BA60BB70B813808
:1054B0009F44A241B10570F188ED93E059CFD3012B
:1054C000C2012EA93FA948AD59AD821B930BA40B75
:1054D000B50B4CEA52E16BEB72E1B7FDD2CF80E045
:1054E0000E94D21ACECF20E030E040EF51E46D812F
:1054F0007E81C1010E94E5779B01AC01B8018DADB1
:105500009EAD0E94E67387FFBCCF4FE65DE16FE77B
:105510007DE1E5CF4BAC5CAC6B847C8446145704D6
:105520000CF09FCE9301233031050CF49ACE8BE71B
:1055300093E00E94F9188EE593E00E94F918B501F6
:10554000A40187E793E00E94B71F8AE00E94F21847
:105550008EE593E00E94F9184C8D5D8D6E8D7F8DE8
:1055600083E793E00E94B71F8AE00E94F2188EE55D
:1055700093E00E94F91848A159A16AA17BA18FE686
:1055800093E00E94B71F8AE00E94F2184AAC4420C0
:1055900061F18092EB0F9092EC0FA092ED0FB09220
:1055A000EE0F2CEA35EC47E25EE36C8D7D8D8E8D3F
:1055B0009F8D0E944B746093EF0F7093F00F809358
:1055C000F10F9093F20F2CEA35EC47E25EE368A10D
:1055D00079A18AA19BA10E94C2786093F30F709376
:1055E000F40F8093F50F9093F60FEE960FB6F894A4
:1055F000DEBF0FBECDBFDF91CF911F910F91FF9006
:10560000EF90DF90CF90BF90AF909F908F907F9062
:105610006F905F904F903F902F9008950E940C7A6A
:1056200018160CF093CED301C2012D853E854F850F
:105630005889821B930BA40BB50BAC01BD014858D4
:1056400053416109710977FD81CE4B855C85452BFE
:1056500009F402C128A539A54AA55BA5280F391F61
:105660004A1F5B1F298B3A8B4B8B5C8B28A539A576
:105670004AA55BA5281B390B4A0B5B0BC701B6017A
:105680000E949B7729893A894B895C890E94C27A5A
:10569000CF80D884E984FA84C20ED31EE41EF51E9E
:1056A00034E1C316D104E104F1040CF483CE4CEED2
:1056B000C416D104E104F1040CF076CE50E8C5160E
:1056C000D104E104F1040CF483CECF82D886E986BC
:1056D000FA868EEF90E0A0E0B0E08C199D09AE094B
:1056E000BF096C017D0182E694E00E94F9186F8188
:1056F000788589859A850E94B81A8DE594E00E9484
:10570000F918C701B6010E94B81A49815D896E89EE
:105710007F8986E594E00E94B71F488D598D6A8D78
:105720007B8D8FE494E00E94B71F4B855C854330EE
:1057300051050CF491C0C701B6010E94EC7320E042
:1057400030E040E850E40E944B744B015C01298139
:105750003D894E895F89688D798D8A8D9B8D0E94E8
:10576000E5772BED3FE049E450E40E944B7420E0E4
:1057700030E040E05FE30E944B749B01AC01C50147
:10578000B4010E94C2784B015C0169897A898B89D6
:105790009C890E94EC732FE632E143E85AE30E94B1
:1057A0004B7469837A838B839C83B501A40189E45C
:1057B00094E00E94B71F49815A816B817C8183E408
:1057C00094E00E94B71F2AE939E949E15FE3C50186
:1057D000B4010E944B744B015C01AC019B016981D7
:1057E0007A818B819C810E944B7420E030E040E004
:1057F0005EE30E944B7468A379A38AA39BA3A501CF
:105800009401C501B4010E94E67729813A814B8158
:105810005C810E94C2786C8F7D8F8E8F9F8F83E317
:1058200094E00E94F918B501A4018DE294E00E9471
:10583000B71F4C8D5D8D6E8D7F8D87E294E00E9449
:10584000B71F48A159A16AA17BA181E294E00E94FF
:10585000B71F8AE00E94F2188F819885A985BA85C2
:105860008C0D9D1DAE1DBF1DB595A7959795879570
:105870008093EA0F8B859C8501969C878B879D8101
:105880009983AE81AD8B2E8A3F8A4CA25DA26EA217
:105890007FA2BCA5B98B5ACD8F929F92AF92BF9237
:1058A000CF92DF92EF92FF920F931F93CF9383E9F2
:1058B000E82E8AE0F82E0CEB1FE098E6C92E9FE058
:1058C000D92EC0E088E58C0F0E94CC18882309F4FB
:1058D00078C09ADB4B015C018C2F0E9469188823E9
:1058E00009F465C0F8012081318142815381C501ED
:1058F000B4010E94E677F70160837183828393830A
:10590000CF5FF4E0EF0EF11C0C5F1F4F84E0C80E78
:10591000D11CC330B9F685E40E94CC18882309F461
:105920005BC072DB6B017C0183E00E9469188823F5
:1059300071F02091C80F3091C90F4091CA0F50915A
:10594000CB0FC701B6010E94E6776B017C01C092C4
:105950009F0AD092A00AE092A10AF092A20A86E4DD
:105960000E94CC188823B9F04FDB20E030E0A90179
:105970000E940C7A18167CF447DB20E030E040E708
:1059800052E40E94C2786093400270934102809377
:10599000420290934302CF911F910F91FF90EF909D
:1059A000DF90CF90BF90AF909F908F900895F601B9
:1059B0002081318142815381C501B4010E94E57784
:1059C0009ACFF80180819181A281B381F701808310
:1059D0009183A283B38394CF8091C80F9091C90F14
:1059E000A091CA0FB091CB0F80939F0A9093A00A09
:1059F000A093A10AB093A20AB2CF2F923F924F92E6
:105A00005F926F927F928F929F92AF92BF92CF924E
:105A1000DF92EF92FF920F931F93CF93DF9300D00B
:105A200000D01F921F92CDB7DEB70E9424116B01E8
:105A30007C0100913C0209830023F1F08091A70AC8
:105A40008823D1F0409177025091780260917902D9
:105A500070917A0297018601041B150B260B370BF8
:105A6000B901A80177FD1BC0833009F4D6C00CF042
:105A7000C5C081300CF0CAC01981212F30E0A8EEDA
:105A8000B3E00E94D677C60ED71EE81EF91EC0925C
:105A90007702D0927802E0927902F0927A028091B5
:105AA000390A803108F074C080E6F82E01E0809158
:105AB000390A803108F06CC080910403909105038D
:105AC000891B8F7709F464C00E94931997FDEFCF6B
:105AD0008A3019F08D3009F04DC11092E4028091A6
