:100000000C94830E0C94B40E0C94B40E0C94B40E99
:100010000C94B40E0C94B40E0C94B40E0C94B40E58
:100020000C94B40E0C94B40E0C94B40E0C94B40E48
:100030000C94B40E0C94B40E0C94B40E0C94B40E38
:100040000C94B40E0C9442660C94B40E0C94B40E42
:100050000C94B40E0C94B40E0C94335F0C94BB5DF2
:100060000C94B40E0C948B660C9481660C94B40EB4
:100070000C94B40E0C94B40E0C94B40E0C94B40EF8
:100080000C94B40E0C94B40E0C94B40E0C94B40EE8
:100090000C94B40E0C94B40E0C94B40E0C94B40ED8
:1000A0000C94B40E0C94B40E0C94B40E0C94B40EC8
:1000B0000C94B40E0C94B40E0C94B40E0C94B40EB8
:1000C0000C94B40E0C94B40E0C94B40E0C94B40EA8
:1000D0000C94B40E0C94B40E0C94B40E0C94B40E98
:1000E0000C94B40E084AD73B3BCE016E84BCBFFDD6
:1000F000C12F3D6C74319ABD56833DDA3D00C77FF8
:1001000011BED9E4BB4C3E916BAAAABE0000008090
:100110003F05A84CCDB2D44EB93836A9020C50B91F
:10012000918688083CA6AAAA2ABE000000803F004B
:100130004E414E494E495459494E46CDCCCC3D0ACC
:10014000D7233C17B7D13877CC2B329595E6241FAF
:10015000B14F0A000020410000C84200401C462068
:10016000BCBE4CCA1B0E5AAEC59D744C4556454C80
:10017000494E4700434F4D4D554E49434154494F19
:100180004E0044525952554E004552524F52530060
:10019000494E464F004543484F00363726033C3D05
:1001A000380E2E303E12201A1C1808440AFF43084D
:1001B000090001627573793A207061757365642076
:1001C000666F7220696E7075740A00627573793A91
:1001D0002070617573656420666F72207573657237
:1001E0000A00627573793A2070726F636573736980
:1001F0006E670A002121204B494C4C2063617573C6
:10020000656420627920746F6F206D756368206962
:100210006E6163746976652074696D65202D206355
:10022000757272656E7420636F6D6D616E643A20D5
:10023000005072696E7465722073746F70706564BB
:100240002064756520746F206572726F72732E2042
:1002500046697820746865206572726F7220616EDD
:100260006420757365204D39393920746F207265AB
:1002700073746172742E202854656D706572617498
:100280007572652069732072657365742E205365DD
:10029000742069742061667465722072657374617C
:1002A0007274696E67290A004E6F20436865636B3C
:1002B00073756D2077697468206C696E65206E7542
:1002C0006D6265722C204C617374204C696E653AC6
:1002D0002000636865636B73756D206D69736D6174
:1002E0007463682C204C617374204C696E653A20ED
:1002F000004C696E65204E756D62657220697320D1
:100300006E6F74204C617374204C696E65204E755D
:100310006D6265722B312C204C617374204C696EB8
:10032000653A20004D313130006563686F3A004511
:1003300072726F723A0020580020496E76616C69C3
:100340006420657874727564657220004361703A48
:1003500000526573656E643A200023646566696EB9
:10036000652044454641554C545F004B6420004B8A
:100370006920004B702000504944204175746F740F
:10038000756E652066696E697368656421205075B5
:100390007420746865206C617374204B702C204B42
:1003A0006920616E64204B6420636F6E7374616EAC
:1003B00074732066726F6D2062656C6F7720696E52
:1003C000746F20436F6E66696775726174696F6ED2
:1003D0002E680A00504944204175746F74756E652B
:1003E000206661696C6564212074696D656F757440
:1003F0000A00504944204175746F74756E6520661B
:1004000061696C6564212054656D706572617475F5
:10041000726520746F6F20686967680A00204B64FA
:100420003A2000204B693A2000204B703A20000A05
:1004300020436C617373696320504944200A002093
:1004400054753A2000204B753A2000206D61783AAF
:100450002000206D696E3A200020643A200020625E
:100460006961733A2000504944204175746F747576
:100470006E652073746172740A005049442041759E
:10048000746F74756E65206661696C6564212054B3
:10049000656D706572617475726520746F6F206828
:1004A0006967680A00504944204175746F74756E1D
:1004B00065206661696C656421204261642065780D
:1004C000747275646572206E756D6265720A0020C3
:1004D0006D61783A00206D696E3A00417869732049
:1004E00000000048430000484300002F4300000084
:1004F00000000000000000000048617264636F6447
:1005000065642044656661756C7420536574746914
:100510006E6773204C6F616465640A000000964347
:100520000000964300004040000034440000204397
:1005300000002043AEE3FB4500000042B80B000082
:10054000B80B00003200000050C300003B20003A0E
:100550000A0020204D3835312058005A2D50726F36
:100560006265204F66667365740020440020490070
:1005700020204D33303120500050494420736574A1
:1005800074696E67733A0020204D36363600456E2A
:100590006473746F702061646A7573746D656E74D2
:1005A0003A0020204D323036205800486F6D6520CB
:1005B0006F66667365743A00204A0020530020205D
:1005C0004D323035204200416476616E6365643A95
:1005D00020423C6D696E5F7365676D656E745F7414
:1005E000696D655F75733E20533C6D696E5F66652E
:1005F0006564726174653E20543C6D696E5F74720F
:100600006176656C5F66656564726174653E204AFB
:100610003C6A756E635F6465763E00205200202060
:100620004D323034205000416363656C65726174F3
:10063000696F6E2028756E6974732F7332293A20A2
:10064000503C7072696E745F616363656C3E2052EA
:100650003C726574726163745F616363656C3E20B4
:10066000543C74726176656C5F616363656C3E00D7
:1006700020204D3230312058004D6178696D756D04
:1006800020416363656C65726174696F6E202875C3
:100690006E6974732F7332293A0020204D32303343
:1006A0002058004D6178696D756D206665656472CE
:1006B000617465732028756E6974732F73293A000D
:1006C00053746570732070657220756E69743A009A
:1006D00020204D3230302044300A0020204D32306E
:1006E000302044002044697361626C65640A0046EE
:1006F000696C616D656E742073657474696E67737F
:100700003A0020286D6D290020204732312020201A
:10071000203B20556E69747320696E206D6D004F0B
:1007200050454E00545249474745524544003A20EF
:10073000007A5F70726F626500655F6D696E007A46
:100740005F6D696E00795F6D696E00785F6D696ECF
:10075000005265706F7274696E6720656E647374A1
:100760006F70207374617475730A00203A20737976
:100770006E635F706C616E5F706F736974696F6ECA
:100780000A00202063757272656E745F706F736902
:1007900074696F6E3D003C3C3C20646F5F626C6F1F
:1007A000636B696E675F6D6F76655F746F0A003E9D
:1007B0003E3E20646F5F626C6F636B696E675F6D56
:1007C0006F76655F746F00290A003C3C3C20646FC3
:1007D0005F686F6D696E675F6D6F76652800486949
:1007E0007420656E6473746F700A00576169746970
:1007F0006E6720746F2068697420656E6473746F0F
:10080000700A00290A005D005B002C20002C2000EB
:100810003E3E3E20646F5F686F6D696E675F6D6F0F
:100820007665280020706F736974696F6E5F7368F6
:10083000696674203D200020686F6D655F6F666695
:10084000736574203D2000417869732000290A00F7
:100850003C3C3C207365745F617869735F69735FCA
:1008600061745F686F6D652800203A200A002020BF
:1008700063757272656E745F706F736974696F6EA1
:100880003D005D203D20003E20686F6D655F6F6616
:10089000667365745B002A2A2A205A20484F4D450A
:1008A0004420544F20454E4453544F50202A2A2A66
:1008B0000A00290A003E3E3E207365745F61786934
:1008C000735F69735F61745F686F6D652800000016
:1008D0004842000048425555554000003443576196
:1008E000726E696E673A20486F6D696E6720427557
:1008F0006D702044697669736F72203C20310A0064
:1009000002020405290A003C3C3C20686F6D6561C9
:100910007869732800203A203E20414654455220F1
:100920007365745F617869735F69735F61745F6831
:100930006F6D650A00202063757272656E745F705A
:100940006F736974696F6E3D00486F6D65696E679E
:100950003A20536C6F77206D6F76652E2E2E0A002D
:10096000486F6D696E673A204D6F7665696E6720D6
:10097000617761792E2E2E0A000000A0400000A0B1
:10098000400000004000000C4200004843000048C6
:100990004300002F430000B443486F6D696E673A0F
:1009A0002046617374206D6F76652E2E2E0A002905
:1009B0000A003E3E3E20686F6D65617869732800CD
:1009C000290A0050726F62653A3A6D6F76655F7AF8
:1009D00028006465706C6F793A2000203A205072CC
:1009E0006F62653A3A7365745F6465706C6F7965C0
:1009F000640A00202063757272656E745F706F7395
:100A00006974696F6E3D00203A203C3C3C20507276
:100A10006F62653A3A70726F62655F646F776E5F9E
:100A2000746F5F7A0A00202063757272656E745F5E
:100A3000706F736974696F6E3D00203A203E3E3ED0
:100A40002050726F62653A3A70726F62655F646FD0
:100A5000776E5F746F5F7A0A00202063757272652B
:100A60006E745F706F736974696F6E3D0024F4D4A7
:100A70003050C38E20C2A24017828B7011127A911F
:100A80000D816CD90AA861E108C758660761514316
:100A9000061E4B5D05C145A7041A411104093D9886
:100AA00003713931034036DB0265339102D430548F
:100AB00002802E1D02632CEE01752AC501B028A00C
:100AC00001102781018F2564012B244B01E0223482
:100AD00001AC211F018D200D01801FFC00841EED43
:100AE00000971DDF00B81CD200E61BC600201BBC0F
:100AF00000641AB200B219A8000A19A0006A189975
:100B000000D117910040178B00B516840031167E76
:100B100000B31579003A157300C7146F0058146AB2
:100B200000EE1366008813630025135E00C7125B96
:100B3000006C12570015125400C111510070114F72
:100B40000021114B00D61049008D1047004610447B
:100B50000002104200C00F4000800F3E00420F3CD8
:100B600000060F3B00CB0E3800930E37005C0E35AD
:100B700000270E3400F30D3200C10D3100900D300E
:100B800000600D2E00320D2D00050D2C00D90C2B10
:100B900000AE0C2900850C29005C0C2700350C27C1
:100BA000000E0C2600E80B2400C40B2400A00B232D
:100BB000007D0B23005A0B2100390B2100180B205C
:100BC00000F80A1F00D90A1E00BB0A1E009D0A1D5C
:100BD00000800A1D00630A1C00470A1B002C0A1B28
:100BE00000110A1A00F7091A00DD091900C40919D1
:100BF00000AB091900920917007B09180063091757
:100C0000004C09160036091600200916000A0915BD
:100C100000F5081500E0081400CC081400B808140A
:100C200000A4081400900813007D0812006B08133C
:100C30000058081200460812003408110023081159
:100C4000001208110001081100F0071000E0071061
:100C500000D0071000C0071000B0070F00A1071058
:100C60000091070E0083070F0074070F0065070E41
:100C70000057070E0049070E003B070D002E070E18
:100C80000020070D0013070D0006070D00F9060CE4
:100C900000ED060D00E0060C00D4060C00C8060CA2
:100CA00000BC060C00B0060C00A4060B0099060C54
:100CB000008D060B0082060B0077060B006C060BFE
:100CC0000061060A0057060B004C060A0042060A9D
:100CD0000038060A002E060A0024060A001A060A30
:100CE000001006090007060A00FD050900F40509C1
:100CF00000EB050900E2050900D9050900D0050946
:100D000000C7050900BE050900B5050800AD0508C6
:100D100000A50509009C050800940508008C05083D
:100D200000840508007C050800740508006C0507B0
:100D300000650508005D050700560508004E05071B
:100D40000047050700400508003805070031050782
:100D5000002A050700230507001C050600160507E5
:100D6000000F0507000805060002050700FB040642
:100D700000F5040700EE040600E8040600E204079C
:100D800000DB040600D5040600CF040600C90406F3
:100D900000C3040600BD040600B7040600B1040544
:100DA00000AC040600A6040600A00405009B04068F
:100DB0000095040500900406008A040500850405DA
:100DC00000800406007A040500750405007004051F
:100DD000006B04050066040500610405005C040561
:100DE0000057040500520405004D040500480405A1
:100DF00000430405003E0404003A040500350405E0
:100E000000300404002C040500270404002304051A
:100E1000001E0404001A0404001604050011040452
:100E2000000D040400090405000404040000040487
:100E300000FC030400F8030400F4030400F00304BE
:100E400000EC030400E8030400E4030400E00304EE
:100E500000DC030400D8030400D4030400D003041E
:100E600000CC030400C8030300C503030024F404FA
:100E7000D9201BC40C5C0E9804C4095F026507717D
:100E800001F405F900FB04B30048048700C10369BD
:100E9000005803550003034500BE023A00840231A6
:100EA0000053022A002902250004022000E4011C4C
:100EB00000C8011900AF0117009801140084011344
:100EC00000710110006101100051010E0043010D7D
:100ED0000036010B002B010B0020010B001501094E
:100EE000000C01090003010800FB000800F30008E2
:100EF00000EB000700E4000600DE000600D8000654
:100F000000D2000600CC000500C7000500C20005A5
:100F100000BD000400B9000400B5000400B10004E5
:100F200000AD000400A9000400A5000300A2000316
:100F3000009F0004009B000300980003009500023E
:100F40000093000300900003008D0002008B00035B
:100F50000088000200860002008400030081000275
:100F6000007F0002007D0002007B00020079000289
:100F70000077000100760002007400020072000198
:100F800000710002006F0002006D0001006C0002A1
:100F9000006A0001006900020067000100660001AC
:100FA00000650001006400020062000100610001B0
:100FB00000600001005F0002005D0001005C0001B4
:100FC000005B0001005A00010059000100580001B7
:100FD00000570001005600010055000100540001B7
:100FE00000530000005300010052000100510001B5
:100FF00000500001004F0001004E0000004E0001B3
:10100000004D0001004C0001004B0000004B0001AE
:10101000004A0001004900010048000000480001AA
:1010200000470001004600000046000100450000A6
:10103000004500010044000100430000004300019E
:101040000042000000420001004100000041000198
:1010500000400001003F0000003F0001003E000092
:10106000003E0001003D0000003D0001003C00008A
:10107000003C0000003C0001003B0000003B000180
:10108000003A0000003A0001003900000039000178
:101090000038000000380000003800010037000070
:1010A0000037000100360000003600000036000165
:1010B000003500000035000000350001003400005C
:1010C0000034000000340001003300000033000051
:1010D0000033000100320000003200000032000145
:1010E000003100000031000000310001003000003C
:1010F0000030000000300001002F0000002F000031
:10110000002F0000002F0001002E0000002E000024
:10111000002E0001002D0000002D0000002D000019
:10112000002D0001002C0000002C0000002C00000D
:10113000002C0001002B0000002B0000002B000001
:10114000002B0001002A0000002A0000002A0000F5
:10115000002A0001002900000029000000290000E9
:1011600000290000002900010028000000280000DC
:1011700000280000002800000028000100270000CF
:1011800000270000002700000027000000270001C2
:1011900000260000002600000026000000260000B7
:1011A00000260001002500000025000000250000A9
:1011B000002500000025000000250001002400009B
:1011C000002400000024000000240000002400018E
:1011D0000023000000230000002300000023000083
:1011E0000023000000230000002300010022000073
:1011F0000022000000220000002200000022000067
:101200000022000100210000002100000021000058
:101210000021000000210000002100000021000149
:10122000002000000020000000200000002000003E
:10123000002000000020000000200000002000012D
:10124000001F0000001F0000001F0000001F000022
:10125000001F0000001F0000001F0001001E000012
:10126000001E0000001E0000001E000000043700E9
:10127000001E290000511B0000581000001009003A
:1012800000CC040000780200004101000020436F00
:10129000756E7420583A00626564002C207379736F
:1012A00074656D2073746F7070656421204865618A
:1012B0007465725F49443A200070012C0190012747
:1012C00001B0012201C0011D01F00118011002133B
:1012D0000130020E016002090190020401C002FF08
:1012E000000003FA004003F5008003F000D003EB98
:1012F000002004E6007004E100E004DC004005D7B3
:1013000000C005D2004006CD00D006C8008007C34B
:10131000003008BE00F008B900C009B400B00AAF40
:1013200000B00BAA00D00CA500000EA000500F9B2F
:1013300000C01096005012910000148C00C0158758
:1013400000B0178200B0197D00D01B7800001E731A
:101350000040206E0090226900F024640040275F66
:101360000090295A00E02B5500102E500020304BE1
:101370000010324600E033410090353C0010373712
:101380000070383200A0392D00B03A2800A03B236D
:1013900000603C1E00103D1900903D1400103E0FEF
:1013A00000703E0A00C03E0500003F0000403FFBC9
:1013B000FF803FF6FFC03FF1FF4572723A204D417A
:1013C0005854454D50004D415854454D502074726D
:1013D00069676765726564004572723A204D494ECF
:1013E00054454D50004D494E54454D50207472693E
:1013F00067676572656400202F002042403A002034
:10140000403A0000002100240027002A002D00306F
:1014100000330001010000040107010A010000225D
:1014200000250028002B002E0031003400020100AE
:1014300000050108010B01000020002300260029FF
:10144000002C002F003200000100000301060109FA
:101450000105050505070508080808020202020A39
:101460000A08080404040401010101010101010347
:1014700003030303030303040707070C0C0C0C0C02
:101480000C0C0C0202020206060606060606060BF5
:101490000B0B0B0B0B0B0B0102102020080810206C
:1014A00040102040800201020108040201010204F0
:1014B00008102040808040201008040201800402AF
:1014C0000180402010080402010804020101020406
:1014D0000810204080010204081020408000000A0B
:1014E0000B02090C0D0E08070304010000000000A8
:1014F00000000000000000000000000000000000EC
:1015000000000000000000000012111000000000A8
:1015100000000000000000000000000000000000CB
:101520000000002020506C616E6E65724275666628
:10153000657242797465733A2000204672656520B1
:101540004D656D6F72793A2000436F6D70696C65FF
:10155000643A204D617920313120323032300A0036
:10156000204C61737420557064617465643A203254
:101570003032302D30332D3037207C204175746867
:101580006F723A20526963686172642048616C6CC2
:101590000A00322E302E342E340A004D61726C69EE
:1015A0006E0020536F6674776172652052657365B3
:1015B000740A00205761746368646F672052657312
:1015C00065740A002042726F776E206F7574205226
:1015D000657365740A002045787465726E616C20CD
:1015E00052657365740A00506F77657255700A0012
:1015F00073746172740A0020503A00205A3A002035
:10160000593A0020583A00656E6473746F70732005
:101610006869743A20006F6B00496E76616C69648A
:101620002065787472756465720A003C3C3C2054F5
:1016300028290A00203A2041465445520A00202019
:1016400063757272656E745F706F736974696F6EC3
:101650003D00203A204245464F52450A0020206373
:10166000757272656E745F706F736974696F6E3DC9
:1016700000290A003E3E3E20542800290A0020741A
:101680006F20003F5A206F7574206F662072616E64
:101690006765202800290A0020746F20003F592028
:1016A0006F7574206F662072616E676520282D004B
:1016B000290A0020746F20003F58206F7574206F36
:1016C000662072616E676520282D0050726F62651A
:1016D000204F66667365742058004475616C204520
:1016E0006E6473746F702041646A7573746D656E97
:1016F0007420286D6D293A2000454550524F4D20E9
:1017000064697361626C65640A00486F6D652025C9
:10171000732573257320466972737400546F6F20AC
:101720006661722066726F6D207265666572656EA5
:10173000636520706F696E740A00FFFFFFFF000091
:101740000000000000000000000000000000206415
:101750003A0020693A0020703A00496E76616C695F
:10176000642065787472756465720A0020466C6F37
:10177000773A20004F4646004F4E0020204D6178BA
:101780003A2000200020204D696E3A2000536F66F9
:101790007420656E6473746F70733A20003F4A2042
:1017A0006F7574206F662072616E67652028302E19
:1017B000303120746F20302E33290A00205400204D
:1017C0005200416363656C65726174696F6E3A20A3
:1017D00050002F2F20004348414D4245525F544551
:1017E0004D5045524154555245004D4F54494F4E6E
:1017F0005F4D4F44455300544845524D414C5F5056
:10180000524F54454354494F4E004155544F524551
:10181000504F52545F53445F5354415455530050FA
:10182000524F4D50545F535550504F525400454DF8
:10183000455247454E43595F50415253455200432C
:101840004153455F4C494748545F425249474854C9
:101850004E45535300544F47474C455F4C4947480A
:10186000545300534F4654574152455F504F5745CC
:1018700052004255494C445F50455243454E540036
:101880004C4556454C494E475F44415441005A5FD0
:1018900050524F4245004155544F4C4556454C001F
:1018A0005052494E545F4A4F420050524F475245A2
:1018B0005353004155544F5245504F52545F544575
:1018C0004D5000564F4C554D4554524943004545E7
:1018D00050524F4D0042494E4152595F46494C4586
:1018E0005F5452414E534645520053455249414C74
:1018F0005F584F4E5F584F4646004649524D57413C
:1019000052455F4E414D453A4D61726C696E2032D1
:101910002E302E342E3420284769744875622920D1
:10192000534F555243455F434F44455F55524C3AE0
:1019300068747470733A2F2F6769746875622E63C8
:101940006F6D2F4D61726C696E4669726D77617251
:10195000652F4D61726C696E2050524F544F434F4A
:101960004C5F56455253494F4E3A312E30204D412F
:101970004348494E455F545950453A536861726B2C
:10198000546F6F74682045585452554445525F4314
:101990004F554E543A3120555549443A62356163AA
:1019A000626661302D353036382D343364312D6127
:1019B0003630372D643565616337656337303233D0
:1019C0000A0020573A004D3131332053006F6666CC
:1019D00000950190018901820174016B0144454227
:1019E00055473A006F6B0020573A0050726F74658C
:1019F000637465642050696E0A0025697300256967
:101A00006D20256973002569682025696D20256989
:101A10007300256964202569682025696D20256982
:101A20007300256979202569642025696820256966
:101A30006D20256973005072696E742074696D653C
:101A40003A2000203A203C3C3C2072756E5F7A5F61
:101A500070726F62650A00202063757272656E7421
:101A60005F706F736974696F6E3D00203A203C3C73
:101A70003C2072756E5F7A5F70726F62650A00203B
:101A80002063757272656E745F706F736974696FCD
:101A90006E3D00534C4F572050726F626520666157
:101AA000696C210A00203A203E3E3E2050726F624F
:101AB000653A3A72756E5F7A5F70726F62650A009E
:101AC000202063757272656E745F706F73697469DC
:101AD0006F6E3D003C3C3C2050726F62653A3A703C
:101AE000726F62655F61745F706F696E740A005037
:101AF000726F62696E67204661696C65640A0050A6
:101B00006F736974696F6E204E6F742052656163E4
:101B10006861626C650A00203A200A002020637523
:101B20007272656E745F706F736974696F6E3D0079
:101B30005F72656C6174697665290A002C20002C3F
:101B400020002C20002C20003E3E3E2050726F6270
:101B5000653A3A70726F62655F61745F706F696E4B
:101B6000742800205A3A200020593A200042656427
:101B700020583A2000204E6F7A7A6C65290A00536B
:101B8000616D65205A2061730041626F7665004285
:101B9000656C6F7700202620002D43656E7465729A
:101BA000002D46726F6E74002D4261636B00202819
:101BB000416C69676E656420576974680020284D20
:101BC0006964646C650020284C65667400202852A6
:101BD000696768740050726F6265204F666673654E
:101BE0007420580050726F62653A204649585F4D24
:101BF0004F554E5445445F50524F42450A004D6187
:101C00006368696E6520547970653A204361727427
:101C1000657369616E0A003C3C3C204732380A001B
:101C20005261697365205A20286265666F7265206B
:101C3000686F6D696E672920746F20002E2E2E0A42
:101C400000446F45203D20002E2E2E0A00446F5A7E
:101C5000203D20002E2E2E0A00446F59203D2000EA
:101C60002E2E2E0A00446F58203D20003E20686F23
:101C70006D696E67206E6F74206E65656465642C97
:101C800020736B69700A3C3C3C204732380A003EA6
:101C90003E3E204732380A0047322F4733206261E8
:101CA0006420706172616D65746572730A00220A46
:101CB00000556E6B6E6F776E20636F6D6D616E6435
:101CC0003A20220020453A00205A3A0020593A0092
:101CD000583A00204500205A00205900204D393242
:101CE0002058005072696E7465722068616C74656A
:101CF000642E206B696C6C28292063616C6C6564B0
:101D0000210A0000B56611241FBECFEFD1E2DEBF6D
:101D1000CDBF00E00CBF12E0A0E0B2E0EAE9FAEECD
:101D200000E00BBF02C007900D92A237B107D9F7B0
:101D30002BE0A2E7B2E001C01D92AB37B207E1F79A
:101D40001EE0C3E8DEE000E006C021970109802F15
:101D5000FE010E941D75C238D10780E00807A9F76F
:101D60000E94E1660C944B750C9400008150823106
:101D700008F05AC0E82FF0E08827EE53F14F8F4F5C
:101D80000C941D75E20EE60ED40EDA0EDE0E140F64
:101D9000E90EEF0EF30EF90EFD0E010F070F0B0FFC
:101DA000140F0F0F150F190F809180008F778093FC
:101DB00080000895809180008F7DF9CF8091800010
:101DC000877FF5CF84B58F7784BD089584B58F7DE7
:101DD000FBCF8091B0008F778093B0000895809101
:101DE000B0008F7DF9CF809190008F778093900025
:101DF0000895809190008F7DF9CF80919000877F2A
:101E0000F5CF8091A0008F778093A00008958091F6
:101E1000A0008F7DF9CF8091A000877FF5CF8091C2
:101E200020018F77809320010895809120018F7D7C
:101E3000F9CF80912001877FF5CFCF93DF93282FB3
:101E400030E0F901E352FB4E8491F901E956FB4E73
:101E5000D491F901EF5AFB4EC491CC2399F0811132
:101E600085DFEC2FF0E0EE0FFF1FE95CFB4EA59144
:101E7000B491EC91ED2381E090E009F480E0DF91F2
:101E8000CF91089580E090E0FACF1F93CF93DF9336
:101E9000282F30E0F901E352FB4E8491F901E95615
:101EA000FB4ED491F901EF5AFB4EC491CC23A1F023
:101EB000162F81115BDFEC2FF0E0EE0FFF1FE35ECA
:101EC000FB4EA591B4918FB7F894EC91111108C015
:101ED000D095DE23DC938FBFDF91CF911F910895C2
:101EE000DE2BF8CFCF93DF9390E0FC01E956FB4E59
:101EF00024918F5A9B4EFC0184918823D1F090E06D
:101F0000880F991FFC01ED5FFB4EA591B491FC0178
:101F1000E35EFB4EC591D49161110EC09FB7F8945A
:101F20008C91E22FE0958E238C932881E223E88325
:101F30009FBFDF91CF9108958FB7F894EC91E22B7A
:101F4000EC938FBFF6CF1F93CF93DF93182FEB0146
:101F500061E0C8DF209731F460E0812FDF91CF91FD
:101F60001F9193CFCF3FD10511F461E0F6CFE12F60
:101F7000F0E0E352FB4EE491E150E23108F0B3C0EF
:101F8000F0E08827E953F04F8F4F0C941D75D90F5F
:101F9000E10FE60FF00FFA0F731004100C1014107D
:101FA0001E102810321041104B10731055105F1086
:101FB000691084B5806884BDC7BDDF91CF911F9142
:101FC000089584B5806284BDC8BDF7CF809180003C
:101FD000806880938000D0938900C0938800EDCF03
:101FE00080918000806280938000D0938B00C093AA
:101FF0008A00E3CF80918000886080938000D09336
:102000008D00C0938C00D9CF8091B0008068809300
:10201000B000C093B300D1CF8091B00080628093B4
:10202000B000C093B400C9CF8091900080688093C5
:102030009000D0939900C0939800BFCF80919000FA
:10204000806280939000D0939B00C0939A00B5CF9C
:1020500080919000886080939000D0939D00C09301
:102060009C00ABCF8091A00080688093A0008091FD
:10207000A0008F7B8093A000D093A900C093A800FC
:102080009CCF8091A00080628093A000D093AB0091
:10209000C093AA0092CF8091A00088608093A00096
:1020A000D093AD00C093AC0088CF809120018068B0
:1020B00080932001D0932901C09328017ECF809185
:1020C0002001806280932001D0932B01C0932A01CC
:1020D00074CF80912001886080932001D0932D01DE
:1020E000C0932C016ACFC038D1050CF03ECF34CF5D
:1020F0003FB7F89480911E0490911F04A091200492
:10210000B091210426B5A89B05C02F3F19F0019678
:10211000A11DB11D3FBFBA2FA92F982F8827BC0141
:10212000CD01620F711D811D911D42E0660F771F69
:10213000881F991F4A95D1F708958F929F92AF9269
:10214000BF92CF92DF92EF92FF926B017C01D0DFC2
:102150004B015C01C114D104E104F104B1F0C8DF0A
:10216000681979098A099B09683E734081059105C0
:1021700088F321E0C21AD108E108F10888EE880E40
:1021800083E0981EA11CB11CE5CFFF90EF90DF907B
:10219000CF90BF90AF909F908F9008952FB7F894F5
:1021A00060911A0470911B0480911C0490911D048D
:1021B0002FBF08958091E0059091E1058635910546
:1021C00054F481E02091D5053091D60526303105B3
:1021D0001CF480E0089581E008951092130480912A
:1021E0001B0290911C020F971816190614F490E028
:1021F00080E09093E1058093E0051092D60510925F
:10220000D5051092E2052C981092D7058091020115
:1022100080728093000108958F929F92AF92BF9237
:10222000CF92DF92EF92FF920F931F93CF93DF93A2
:10223000B0E4A0E06A2F70E0AB014B0F511D559543
:102240004795411119C0EBEBF2E165917491072EAE
:10225000000C880B990B0E942B6EDF91CF911F9180
:102260000F91FF90EF90DF90CF90BF90AF909F9035
:102270008F900895B42FE0CFA41711F0B41303C0CA
:10228000E7EBF3E1E2CF9A0121503109220F331F2E
:10229000220F331FF901E754FD4EE590F490F90148
:1022A000E354FD4EC591D4918E159F051CF3A42FC8
:1022B000C817D9070CF4BECFF901E554FD4E0591BE
:1022C0001491F901E154FD4EC590D490BC016E19F2
:1022D0007F09072E000C880B990B0E942B6E4B0177
:1022E0005C01B601601B710B072E000C880B990B6B
:1022F0000E942B6E9B01AC01C501B4010E948A6E45
:102300004B015C01BE016E197F09072E000C880B82
:10231000990B0E942B6E9B01AC01C501B4010E9478
:1023200001736B017C01B801110F880B990B0E949E
:102330002B6E9B01AC01C701B6010E9425728DCFA7
:10234000BC012091EA033091EB034091EA035091E4
:10235000EB032417350731F481E02617370709F01E
:1023600080E008959A01F1CF0000000082E08A9594
:102370000000E9F78091240480FF2DC089988FEF39
:102380008093A00380912404869580FF27C08F9AB4
:102390008FEF8093A103809124048695869580FF1A
:1023A00020C080910B018270809309018FEF809390
:1023B000A2038091240486958695869580FF19C096
:1023C00016988FEF8093A3030000000082E08A95A7
:1023D0000000E9F70895899A81E0D2CF8F9881E0D3
:1023E000D8CF80910B01809582708093090181E0A4
:1023F000DECF169A81E0E6CF20911B0230911C02BD
:102400002F503109821793070CF49C013093E1059A
:102410002093E0050895AF92BF92CF92DF92EF92A2
:10242000FF920F931F93CF93DF93CAE0DBE003E4A7
:1024300016E08AE1A82E8BE0B82EC12CD12C7601B3
:10244000C39469917991899199910E94296E288903
:1024500039894A895B890E948A6E0E946E73F801ED
:1024600061937193819391938F01C616D706E80605
:10247000F90610F46B017C01AC16BD0611F76FEF85
:102480007FEFCB01A70196010E94E97120935306CB
:10249000309354064093550650935606DF91CF91E2
:1024A0001F910F91FF90EF90DF90CF90BF90AF9072
:1024B0000895CF92DF92EF92FF928091C105882319
:1024C00009F457C0C090BD05D090BE05E090BF058F
:1024D000F090C00520E030E0A901C701B6010E94DC
:1024E000256E882309F445C020E030E040E05FE33A
:1024F000C701B6010E948A6E9B01AC010E948A6EE0
:102500002BED3FE049E450E40E948A6E9B01AC0150
:1025100060E070E080E89FE30E9401736B017C0142
:10252000C092AD05D092AE05E092AF05F092B00535
:1025300060911D0270911E02072E000C880B990BF2
:102540000E942B6E2AE037ED43E25CE30E948A6E24
:10255000A70196010E948A6E60934502709346021D
:102560008093470290934802FF90EF90DF90CF90C6
:102570000895C12CD12C80E8E82E8FE3F82ED0CF1F
:1025800080915B0B90915C0B891B8F7019F490E02C
:1025900080E008959091580B992351F0833030F4E6
:1025A0008FEF890F19F08093580BF1CF1092580BD1
:1025B00080915C0B27E4829FC00111248759994FB9
:1025C000FC01208120FDE3CF20915C0B2F5F2F7059
:1025D0002093590B30915C0B20915A0B321304C09D
:1025E0002091590B20935A0B089590916F0081E030
:1025F00091FD02C080E0089590916F009D7F9093BF
:102600006F000895EFE6F0E0808182608083089596
:10261000CF93C82FEADF94E0C99F90011124F901FC
:10262000E351FC4F2252354FD9014D915D916D918F
:102630007C91408351836283738391E09093EC0398
:10264000882311F0CF91DECFCF910895CF92DF9202
:10265000EF92FF92CF93DF93C82FC7DF94E0C99F1B
:10266000E0011124FE01E252F54FC080D180E280EA
:10267000F3808111C7DFC75AD94FC701B6010E9445
:102680002B6E288139814A815B810E948A6EDF919D
:10269000CF91FF90EF90DF90CF900895CF92DF928F
:1026A000EF92FF92CF93DF93C82F9FDF94E0C99FF3
:1026B000E0011124FE01E351FC4FC080D180E28093
:1026C000F38081119FDFC75AD94FC701B6010E941D
:1026D0002B6E288139814A815B810E948A6EDF914D
:1026E000CF91FF90EF90DF90CF900895CF92DF923F
:1026F000EF92FF921F93CF93DF9320911F0222232B
:1027000009F48DC0EC011091130610FF2CC0C0908D
:102710002002D0902102E0902202F0902302288132
:1027200039814A815B81C701B6010E944B7418163A
:1027300024F4C882D982EA82FB82C0902C02D09015
:102740002D02E0902E02F0902F02288139814A81DB
:102750005B81C701B6010E94256E87FF04C0C88255
:10276000D982EA82FB8211FF2CC0C0902402D09053
:102770002502E0902602F09027022C813D814E81B7
:102780005F81C701B6010E944B74181624F4CC82F5
:10279000DD82EE82FF82C0903002D0903102E09064
:1027A0003202F09033022C813D814E815F81C7015E
:1027B000B6010E94256E87FF04C0CC82DD82EE82C6
:1027C000FF8212FF2CC0C0902802D0902902E09016
:1027D0002A02F0902B02288539854A855B85C7013E
:1027E000B6010E944B74181624F4C886D986EA866E
:1027F000FB86C0903402D0903502E0903602F09013
:102800003702288539854A855B85C701B6010E9454
:10281000256E87FF04C0C886D986EA86FB86DF91CD
:10282000CF911F91FF90EF90DF90CF90089580910E
:102830009C0390919D03A0919E03B0919F03809370
:10284000400290934102A0934202B09343028091D0
:102850009A0390919B0390933F0280933E020895C8
:102860008091400290914102A0914202B0914302B6
:1028700080939C0390939D03A0939E03B0939F032A
:1028800080913E0290913F0290939B0380939A0324
:1028900084E690E090933F0280933E0208958F92E9
:1028A0009F92AF92BF92CF92DF92EF92FF921F93CF
:1028B000CF93DF93CDB7DEB760970FB6F894DEBF46
:1028C0000FBECDBF182F81E0C1DE6B017C0180E01F
:1028D000BDDE4B015C0180928E0390928F03A0922B
:1028E0009003B0929103C0929203D0929303E0922E
:1028F0009403F092950382E0A9DE609396037093AF
:102900009703809398039093990389829A82AB826C
:10291000BC82CD82DE82EF82F88669877A878B87D8
:102920009C8783E093DE6D877E878F87988B1E3F21
:10293000D9F480E1FE013196AEEEBAE001900D923D
:102940008A95E1F760960FB6F894DEBF0FBECDBF53
:10295000DF91CF911F91FF90EF90DF90CF90BF90CC
:10296000AF909F908F90089524E0129FC001112492
:10297000FC01E251F54FA1E0B0E0AC0FBD1F8A0FA2
:102980009B1FDC014D915D916D917C914083518342
:1029900062837383D7CFCF92DF92EF92FF928091C1
:1029A0001006811105C080912504882309F4D5C043
:1029B00080918C0390918D03659BC5C0816090933D
:1029C0008D0380938C032091030180918C0390915F
:1029D0008D0321FFBAC0826090938D0380938C0396
:1029E00080918C0390918D034B9BB1C08460909338
:1029F0008D0380938C0380918C0390918D03359B84
:102A0000A8C0886090938D0380938C0380918C0381
:102A100090918D034A9B9FC0906890938D03809303
:102A20008C03C090DD03C0FE13C08091240480FF9E
:102A30000FC080918C0380FF0BC08091A9059091FD
:102A4000AA0581609093AA058093A90580E0E0DD46
:102A5000D12CF12CE12CD701C601B695A7959795FD
:102A6000879580FF14C080912404869580FF0FC055
:102A700080918C0381FF0BC08091A9059091AA05DC
:102A800082609093AA058093A90581E0C1DDD701FA
:102A9000C60122E0B695A795979587952A95D1F717
:102AA00080FF2CC0809124048695869580FF26C0E7
:102AB0008091250481110FC080918C0382FF0BC08F
:102AC0008091A9059091AA0584609093AA058093AE
:102AD000A90582E09DDD80912504882379F080910D
:102AE0008C0383FF0BC08091A9059091AA05886093
:102AF0009093AA058093A90582E08ADD83E0F6948D
:102B0000E794D794C7948A95D1F7C0FE26C08091E8
:102B1000240486958695869580FF1FC080918C033E
:102B200090918D0397FF19C08091A9059091AA05F6
:102B300090689093AA058093A90583E0FF90EF9099
:102B4000DF90CF9065CD8E7F3ACF8D7F45CF8B7F45
:102B50004ECF877F57CF9F7760CFFF90EF90DF906A
:102B6000CF9008950F931F938091F305813011F555
:102B700015DB009188031091890320918A0330911D
:102B80008B03601B710B820B930B28EE33E040E04C
:102B900050E00E94E97160918403709185038091F7
:102BA000860390918703620F731F841F951F1F91E7
:102BB0000F9108956091EF057091F0058091F105F6
:102BC0009091F205D6CF1092F305109288031092DF
:102BD000890310928A0310928B031092EF051092D2
:102BE000F0051092F1051092F205109284031092F4
:102BF0008503109286031092870308958091F30550
:102C00008130D9F08230B9F4ADDF609384037093E2
:102C10008503809386039093870381E08093F30577
:102C2000BDDA609388037093890380938A0390933D
:102C30008B0381E00895C7DFF0CF80E00895809195
:102C4000F3058150823068F41092F305A7DA60939F
:102C5000EF057093F0058093F1059093F20581E004
:102C6000089580E008954F925F926F927F928F92C5
:102C70009F92AF92BF92CF92DF92EF92FF92CF934B
:102C8000DF9300D000D01F921F92CDB7DEB79E8396
:102C90008D83DB01CD90DD90ED90FC908091080656
:102CA00090910906A0910A06B0910B0689839A8338
:102CB000AB83BC839C01AD01C701B6010E942472A5
:102CC0002B013C01AD81BE818D909D90AD90BC905B
:102CD0008091040690910506A0910606B091070622
:102CE0008D839E83AF83B88727E137EB41ED58EBA7
:102CF000C301B2010E944B7487FDD1C027E030E0D0
:102D000048E453E4C301B2010E94256E18160CF486
:102D1000C6C02D813E814F815885C501B4010E94F6
:102D200024722B013C0127E137EB41ED58EB0E9467
:102D30004B7487FDB4C027E030E048E453E4C3019E
:102D4000B2010E94256E18160CF4A9C020E030E0F4
:102D5000A9016D817E818F8198850E9425722B014A
:102D60003C0120E030E040E251E40E94256E87FF04
:102D700006C0412C512C30E2632E31E4732E27E142
:102D800037EB41ED58E3C301B2010E9424729B016D
:102D9000AC01C501B4010E944B7487FD80C020E0E6
:102DA00030E048E453E46D817E818F8198850E94F4
:102DB00025722B013C0120E030E04EE353E40E94F9
:102DC0004B74181634F4412C512C2EE3622E23E45C
:102DD000722E27E137EB41ED58E3C301B2010E94A7
:102DE00025729B01AC01C501B4010E94256E181625
:102DF0000CF455C020E030E0A90169817A818B8113
:102E00009C810E9425724B015C0120E030E040E291
:102E100051E40E94256E87FF06C0812C912C90E220
:102E2000A92E91E4B92E27E137EB41ED58E3C50116
:102E3000B4010E9424729B01AC01C701B6010E943B
:102E40004B7487FD2CC020E030E048E453E46981F6
:102E50007A818B819C810E9425724B015C0120E06C
:102E600030E04EE353E40E944B74181634F4812C86
:102E7000912C8EE3A82E83E4B82E27E137EB41EDA9
:102E800058E3C501B4010E9425729B01AC0191E099
:102E90009983C701B6010E94256E18160CF4198299
:102EA000898128960FB6F894DEBF0FBECDBFDF91A3
:102EB000CF91FF90EF90DF90CF90BF90AF909F9019
:102EC0008F907F906F905F904F900895282F9091F2
:102ED0002A06833021F495FD0FC094FD0FC0892F81
:102EE00090E0B0E0A0E004C0B695A79597958795CF
:102EF0002A95D2F78170089581E0089580E00895C1
:102F00002FEB280F2A3108F042C0E22FF0E0809129
:102F1000F4059091F505A091F605B091F70504C070
:102F2000B695A795979587952A95D2F780FD02C00B
:102F300081700895E851FD4FE081EE2329F18091E1
:102F4000DC0A9091DD0AE80FF92FF11D808190EDE8
:102F5000980F9A3030F08E3251F4818180538A304C
:102F600098F4F0931506E093140681E008958D32ED
:102F700011F08B3249F4818190ED980F9A3088F3EB
:102F80008E3211F48281EACFF0E0E0E0EACF80E017
:102F90000895B6DF882341F081E020911406309136
:102FA0001506232B09F480E00895129A08955F9A7C
:102FB000809112068E7F809312068A9A8091120663
:102FC0008D7F809312068091080180958170809397
:102FD0000601809112068B7F80931206E6CF9091B6
:102FE000C00095FFFCCF8093C6000895CF93DF9378
:102FF000EC01FE0184912196882311F0F0DFF9CFD6
:10300000DF91CF910895CF93C82FCB01EFDF8EE2F0
:1030100097E0ECDF8FE197E0CC2311F084E297E0BA
:10302000E5DF8AE0CF91DBCF81E597E0DFDF8CB190
:103030006BE477E085FB882780F9E5DF8091030169
:1030400065E477E086958170DEDF89B16FE377E034
:1030500083FB882780F9D7DF89B169E377E082FBBA
:10306000882780F9D0DF86B161E377E085FB882788
:1030700080F9C9CF0F931F93CF93DF938B01B6DFF6
:10308000E8018991882311F0AADFFBCFDF91CF916E
:103090001F910F9108958FE293E0A8CFC82F9DD87C
:1030A000FADF83EE9CE1A2DF89EE93E030E6019740
:1030B00029F0232F2A950000E9F7F9CFF89489EE3B
:1030C00093E038EE019729F0232F2A950000E9F7C5
:1030D000F9CF83D8CC2319F06ADFA895FECF65DF3E
:1030E000FCCF89E293E082CFFCDF6091DC0A709133
:1030F000DD0A81EB9CE1BEDF8EEA9CE177CF0F9386
:103100001F93CF9381110FC0C42F8B01EADF8CE492
:1031100095E06CDFC8016ADFCC2329F08AE0CF910B
:103120001F910F915CCFCF911F910F9108958091C6
:103130000203909103032FEF3FEF981751F0E92F0F
:10314000F0E0EE5FFC4F228130E09F5F9F7790932D
:103150000303C90108958F929F92AF92BF92CF92BD
:10316000DF92EF92FF920F931F93CF93DF93B0E420
:10317000A0E06A2F70E0AB014B0F511D55954795AC
:10318000411119C0EBEBF2E165917491072E000C2F
:10319000880B990B0E942B6EDF91CF911F910F919D
:1031A000FF90EF90DF90CF90BF90AF909F908F9067
:1031B0000895B42FE0CF4A1711F0B41303C0E7EB22
:1031C000F3E1E2CF9A0121503109220F331F220F80
:1031D000331FF901E754FD4EE590F490F901E354F3
:1031E000FD4EC591D4918E159F051CF3A42FC817D1
:1031F000D9070CF4BECFF901E554FD4E05911491A9
:10320000F901E154FD4EC590D490BC016E197F09BF
:10321000072E000C880B990B0E942B6E4B015C0152
:10322000B601601B710B072E000C880B990B0E94D6
:103230002B6E9B01AC01C501B4010E948A6E4B014B
:103240005C01BE016E197F09072E000C880B990BDB
:103250000E942B6E9B01AC01C501B4010E94017359
:103260006B017C01B801110F880B990B0E942B6E2A
:103270009B01AC01C701B6010E9425728DCFCF938F
:10328000DF93C8EDD5E08A819B8165DF6C837D8308
:103290008E839F83CDECD5E08A819B810E940C11A7
:1032A0006C837D838E839F83A89510921404DF9195
:1032B000CF9108952F923F924F925F926F927F929B
:1032C0008F929F92AF92BF92CF92DF92EF92FF9236
:1032D0000F931F93CF93DF93CDB7DEB72F970FB622
:1032E000F894DEBF0FBECDBF80911404811119C0C8
:1032F0002F960FB6F894DEBF0FBECDBFDF91CF91F2
:103300001F910F91FF90EF90DF90CF90BF90AF9003
:103310009F908F907F906F905F904F903F902F90F5
:103320000895ADDF0E94CE106B017C014090DC055A
:103330005090DD056090DE057090DF056091190208
:1033400070911A02072E000C880B990B0E942B6EAD
:103350009B01AC01C301B2010E944B74181694F496
:1033600060911B0270911C02072E000C880B990BB8
:103370000E942B6E9B01AC01C301B2010E94256E1D
:1033800087FD5DC060E06093E20580910F0490913D
:103390001004A0911104B0911204A7019601281BFA
:1033A000390B4A0B5B0BDA01C901B7FDA1CF38E835
:1033B000C30E33E1D31EE11CF11CC0920F04D09266
:1033C0001004E0921104F0921204C090D105D09044
:1033D000D205E090D305F090D40520E030E040EA3B
:1033E00050E4C701B6010E944B7487FD20C020E065
:1033F00030E046E153E4C701B6010E94256E18167D
:10340000B4F06091D5057091D605072E000C880B9D
:10341000990B0E942B6E9B01AC01C701B6010E9463
:10342000256E87FD1EC180E08093D70561CF109285
:10343000D7058091020180728093000159CF60917D
:10344000E0057091E1056115710509F4FDC0072ED5
:10345000000C880B990B0E942B6EA30192010E9415
:1034600024724B015C0120E030E040E251EC0E940C
:10347000256E87FDE9C020E030E040E251E4C5015F
:10348000B4010E944B7418160CF4F4C080910E0421
:103490008111F5C020910604309107044091080481
:1034A0005091090429833A834B835C8380910A04F9
:1034B00090910B04A0910C04B0910D048D839E8318
:1034C000AF83B887A30192016091FA037091FB0367
:1034D0008091FC039091FD030E9424722091EB05E2
:1034E0003091EC054091ED055091EE050E948A6EF9
:1034F00029813A814B815C810E94247220ED3CEC51
:103500004CE45DE30E948A6E29813A814B815C81A3
:103510000E94257269837A838B839C83609306045F
:103520007093070480930804909309042091E705A1
:103530003091E8054091E9055091EA0529873A87DD
:103540004B875C872D813E814F815885C501B40131
:103550000E9425728B018F879E8720E030E0A901B1
:103560000E94256E87FD96C029853A854B855C852E
:1035700060E070E08FE793E40E9401736D837D87C4
:103580001C0198014F855E850E94256E87FF04C04F
:103590000D811D852F863E86C801AF85BE8580932F
:1035A0000A0490930B04A0930C04B0930D04209193
:1035B000E3053091E4054091E5055091E605C5012C
:1035C000B4010E948A6E4B015C018092FE039092CE
:1035D000FF03A0920004B092010498014F855E851C
:1035E00069857A858B859C850E948A6E9B01AC01DA
:1035F0002093020430930304409304045093050481
:10360000C501B4010E94257229813A814B815C81F8
:103610000E94257220E030E0A9010E9425724B0132
:103620005C0120E030E0A9010E94256E87FD0FC0FB
:1036300020E030E04FE753E4C501B4010E944B7431
:1036400018168CF46FE704C081E080930E0460E0EC
:103650004092FA035092FB036092FC037092FD03C8
:1036600092CE8FE7E1CEC501B4010E9469737595D2
:103670006795EECF81E080930E046FE7E9CF10925B
:103680000E041D821E821F82188619821A821B82D6
:103690001C8218CF00E010E01F861E867DCFCF92DF
:1036A000DF92EF92FF926B017C0183E3C816D10495
:1036B000E104F10468F082E3C81AD108E108F108D6
:1036C00062E370E080E090E00E949D10F3DDEDCFBA
:1036D000C701B6010E949D10FF90EF90DF90CF9040
:1036E000E9CD80911006811104C0809125048823C2
:1036F00029F062E070E080E090E0D1CF0895CF92B1
:10370000DF92EF92FF920F931F93CF93DF93CDB78A
:10371000DEB7A0970FB6F894DEBF0FBECDBF611520
:1037200071058105910571F100E0C42ED12CF12CB9
:10373000E12CA70196010E94E97111E0100FE1E070
:10374000F0E0EC0FFD1FE00FF11D07FDFA9560831F
:10375000B901CA01012F611571058105910549F76C
:10376000115000F1E1E0F0E0EC0FFD1FE10FF11D61
:1037700017FDFA95908187E39A3008F480E3890F6A
:103780002EDCEECF80E3A0960FB6F894DEBF0FBE1E
:10379000CDBFDF91CF911F910F91FF90EF90DF9000
:1037A000CF901DCCA0960FB6F894DEBF0FBECDBF54
:1037B000DF91CF911F910F91FF90EF90DF90CF900D
:1037C0000895CF92DF92EF92FF926B017C01F7FE9A
:1037D0000AC08DE204DCF094E094D094C094C11C43
:1037E000D11CE11CF11C4AE0C701B601FF90EF902B
:1037F000DF90CF9084CFCF93DF93EB01F7DBBE0157
:10380000DD0F880B990BDF91CF91DBCF0F931F93C7
:10381000CF93C82F8B0180914402882371F03BDC49
:10382000C801E4DB8BE992E1E1DBC11113C060E088
:1038300070E0CB01C6DF8AE0D2DB0E94ED10809100
:10384000F90381110BC081E08093F90310924402C7
:1038500080E024DC87E992E1C9DBEDCFCF911F91B5
:103860000F910895CF92DF92EF92FF92CF93DF9363
:10387000EC01C880D980EA80FB808DE892E1B6DB5C
:10388000C701B6019EDFCC80DD80EE80FF808CEC2E
:103890009CE1ACDBC701B60194DFC884D984EA841B
:1038A000FB8488EC9CE1A2DBC701B6018ADF8AE0D9
:1038B000DF91CF91FF90EF90DF90CF9090CB8F92E0
:1038C0009F92AF92BF92CF92DF92EF92FF92CF93EF
:1038D0006B017C01B42E20E030E0A9010E94256E2E
:1038E00087FF06C08DE27BDBF7FAF094F7F8F094DF
:1038F000C0E060E070E080E09FE3CB1541F02DEC8C
:103900003CEC4CEC5DE30E948A6ECF5FF6CF9B01EE
:10391000AC01C701B6010E9425726B017C010E94B7
:103920006E734B015C014AE0EADECC2381F1C501F4
:10393000B4010E94296E9B01AC01C701B6010E942F
:1039400024726B017C018EE24ADBC15000F120E061
:1039500030E040E251E4C701B6010E948A6E4B019B
:103960005C010E9469736B01770FEE08FF08C701C5
:10397000B60127DFC701B6010E942B6E9B01AC0187
:10398000C501B4010E9424726B017C01DECFCF918E
:10399000FF90EF90DF90CF90BF90AF909F908F906F
:1039A0000895CF92DF92EF92FF926A017B011EDBB6
:1039B00042E0C701B601FF90EF90DF90CF907FCF3C
:1039C000882379F18EDB40911E0B50911F0B609183
:1039D000200B7091210B8CED9CE1E3DF4091220BD9
:1039E0005091230B6091240B7091250B89ED9CE184
:1039F000D8DF4091260B5091270B6091280B7091D6
:103A0000290B86ED9CE1CDDF40912A0B50912B0BC9
:103A100060912C0B70912D0B83ED9CE1C2DF8AE04D
:103A2000DECA80E2DCDACFCF4F925F926F927F9254
:103A30008F929F92AF92BF92CF92DF92EF92FF92BE
:103A4000CF93DF93CDB7DEB72C970FB6F894DEBFD8
:103A50000FBECDBFC090FA0AD090FB0AE090FC0ADE
:103A6000F090FD0A2091020B3091030B4091040B62
:103A70005091050B6091F20A7091F30A8091F40A5B
:103A80009091F50A0E9425722B013C012091060BB2
:103A90003091070B4091080B5091090B6091F60A89
:103AA0007091F70A8091F80A9091F90A0E942572A4
:103AB0004B015C012091FE0A3091FF0A4091000BFE
:103AC0005091010B6091EE0A7091EF0A8091F00A1B
:103AD0009091F10A0E942572AB01BC0180ED9CE13E
:103AE00060DFB301A2018CEC9CE15BDFB501A401B6
:103AF00088EC9CE156DFB701A60184EC9CE151DF24
:103B00000E94F5129CE0EEEDFAE0DE0111960190C4
:103B10000D929A95E1F781110E940213CE01019650
:103B2000A1DE2C960FB6F894DEBF0FBECDBFDF919D
:103B3000CF91FF90EF90DF90CF90BF90AF909F908C
:103B40008F907F906F905F904F9008956DCFEF9220
:103B5000FF920F931F93CF937C018B01C2E44F3FE1
:103B600009F0C4E580E23BDA8C2F39DA8AE337DAF0
:103B7000F701608171818281938142E0A0DEF801CA
:103B8000408151816281738187EF93E10ADF62E0B6
:103B900070E080E090E0CF911F910F91FF90EF9047
:103BA0000C949D10EF92FF921F93CF93DF9300D060
:103BB00000D01F921F92CDB7DEB7182F6091E0059D
:103BC0007091E105072E000C880B990B0E942B6E5B
:103BD0006D837E838F83988720E030E0A901609118
:103BE000DC057091DD058091DE059091DF050E9476
:103BF000257269837A838B839C834BEFBE016B5F55
:103C00007F4FCE010196A3DF6091D5057091D60557
:103C1000072E000C880B990B0E942B6E6D837E8300
:103C20008F8398878091D1059091D205A091D3057B
:103C3000B091D40589839A83AB83BC834FEFBE01D7
:103C40006B5F7F4FCE01019682DFE090D705F12CAC
:103C5000B7011F3F41F087E11802F0011124E8523B
:103C6000FA4F628570E08FEF93E1C5DDB7018AEF0F
:103C700093E1C1DD28960FB6F894DEBF0FBECDBF2D
:103C8000DF91CF911F91FF90EF9008958F929F92B7
:103C9000AF92BF92CF92DF92EF92FF920F931F935A
:103CA000CF93DF93C82FD0E08E01000F111F000FBC
:103CB000111FF801EF54FA4F80809180A280B380E9
:103CC000F801E850FA4FC080D180E280F3800250C2
:103CD000154FA7019601C501B4010E942572F80194
:103CE00060837183828393838091DB0A85FF1EC08A
:103CF000BE01685A7F4F87E498E07DDDB501A401DD
:103D000087E398E04EDEB701A60184E298E049DE41
:103D10008AE0DF91CF911F910F91FF90EF90DF909C
:103D2000CF90BF90AF909F908F9059C9DF91CF9166
:103D30001F910F91FF90EF90DF90CF90BF90AF90C9
:103D40009F908F9008951F93CF93DF93C82FD1E05A
:103D5000D827811101C0C5D988E097E047D982E012
:103D600097E044D98AE03BD98AE039D91091C1055E
:103D7000C1110DC0B6D98CE495E038D98FEE96E02C
:103D800035D9112309F4AAC18AE029D9AAD94091C9
:103D9000BD055091BE056091BF057091C0058BEDCA
:103DA00096E0FFDD8AE01BD9111106C0C11101C0E8
:103DB00098D980ED96E01AD941E060EC76E08C2F3E
:103DC0009ED98D2FFDDD41E063EA76E08C2F97D9F7
:103DD000C11101C086D940912E0B50912F0B6091DB
:103DE000300B7091310B8AE996E0DBDD4091320BAC
:103DF0005091330B6091340B7091350B89ED9CE140
:103E0000D0DD4091360B5091370B6091380B70919B
:103E1000390B86ED9CE1C5DD40913A0B50913B0B8F
:103E200060913C0B70913D0B83ED9CE1BADD8AE023
:103E3000D6D841E069E776E08C2F61D9C11101C085
:103E400050D960910A0B70910B0B80910C0B9091E3
:103E50000D0B0E94296EAB01BC0180E796E0A1DD4D
:103E600060910E0B70910F0B8091100B9091110BC4
:103E70000E94296EAB01BC0189ED9CE192DD60914D
:103E8000120B7091130B8091140B9091150B0E94E3
:103E9000296EAB01BC0186ED9CE183DD6091160BC0
:103EA0007091170B8091180B9091190B0E94296E3D
:103EB000AB01BC0183ED9CE174DD8AE090D841E068
:103EC00067E276E08C2F1BD9C11101C00AD940915D
:103ED0003E0B50913F0B6091400B7091410B8EE176
:103EE00096E05FDD4091420B5091430B6091440B93
:103EF0007091450B8BE196E054DD4091460B50915B
:103F0000470B6091480B7091490B8CEB97E149DDB1
:103F10008AE065D841E067EC75E08C2FF0D8C111DC
:103F200001C0DFD860911A0B70911B0B80911C0BA4
:103F300090911D0B0E94296EAB01BC018EEB95E0A8
:103F400030DD40914A0B50914B0B60914C0B7091BE
:103F50004D0B8BEB95E025DD40914E0B50914F0BB7
:103F60006091500B7091510B8CEB97E11ADD4091F1
:103F70002F0650913006609131067091320688EB21
:103F800095E00FDD8AE02BD841E06BEA75E08C2FDD
:103F9000B6D8C11101C0A5D84091B1055091B20564
:103FA0006091B3057091B40582EA95E0FADC409126
:103FB000B5055091B6056091B7057091B80589EDCA
:103FC0009CE1EFDC4091B9055091BA056091BB05C9
:103FD0007091BC0586ED9CE1E4DC8AE000D841E00C
:103FE0006EE875E08C2F8BD8C11101C07AD887E8B4
:103FF00095E00E94F61741E069E775E08C2F7FD8C5
:10400000C11101C06ED84091E3055091E405609163
:10401000E5057091E60580E795E0C3DC2CEA35EC18
:1040200047E25EE36091E7057091E8058091E9055C
:104030009091EA050E940173AB01BC018DE695E009
:10404000B0DC2CEA35EC47E25EE36091EB05709161
:10405000EC058091ED059091EE050E948A6EAB0112
:10406000BC018AE695E09DDC8AE00E94EF1740E003
:104070006BE575E08C2F43D8C11109C082E097E051
:104080000E94F6178FE495E00E94F6172AD8409117
:10409000040650910506609106067091070682E5B8
:1040A00095E07FDC409108065091090660910A0670
:1040B00070910B0689ED9CE174DC40910C065091E7
:1040C0000D0660910E0670910F0686ED9CE169DC8D
:1040D0008AE0DF91CF911F910C94EF1784EE96E068
:1040E0000E94F61753CECF92DF92EF92FF920F937A
:1040F0001F93CF93DF936C017B01EA01C9010E94FA
:10410000F617F601408151816281738186E393E065
:1041100048DCF701408151816281738189ED9CE126
:1041200040DC488159816A817B8186ED9CE139DCE4
:104130000115110559F0C801DF91CF911F910F9121
:10414000FF90EF90DF90CF900C94F6178AE0DF910C
:10415000CF911F910F91FF90EF90DF90CF900C9433
:10416000EF170F931F939B018A01AC01485F5F4FCC
:10417000BC016C5F7F4FB7DF1F910F9108958DE0F9
:104180000E94EF178AE00C94EF178091020380934E
:10419000030381E593E00E94F6176091540B709140
:1041A000550B8091560B9091570B6F5F7F4F8F4F40
:1041B0009F4F07DBE4DFE091AC05F0E0EF58F44FF0
:1041C0008081882339F086E196E10E94F6178AE023
:1041D0000C94EF170895CF93DF93EC010E944B18D6
:1041E000CE010E94F6176091540B7091550B80918F
:1041F000560B9091570BE5DAC2DF0E949718019693
:10420000E1F7C3DF1092530B1092520BDF91CF9165
:1042100008950F931F93CF938C01C62F8CE493E0E6
:104220000E94F617C8010E94F6178AE30E94EF1752
:104230006C2F70E090E080E0C4DACF911F910F9175
:104240009ECFCF93DF93EC018991882319F00E94D0
:10425000EF17FACFDF91CF9192CF4F925F926F928B
:104260007F928F929F92AF92BF92CF92DF92EF9206
:10427000FF920F931F93CF93DF93CDB7DEB76A976B
:104280000FB6F894DEBF0FBECDBF9A8F898F5B014A
:104290008A01DC01D6966D917D918D919C91D99783
:1042A0000E94296E6B017C01F501208131814281E0
:1042B00053810E948A6E0E94EB722B013C01D8014F
:1042C0002D913D914D915C91C701B6010E948A6E7E
:1042D0000E94EB724B015C01C301B2010E946E733C
:1042E000698B7A8B8B8B9C8B683771058105910567
:1042F00040F428E730E040E050E0298B3A8B4B8BCC
:104300005C8BC501B4010E946E736D877E878F87B9
:10431000988B683771058105910540F488E790E036
:10432000A0E0B0E08D879E87AF87B88BE98DFA8DCE
:10433000EE5BFF4F208131814281538129833A8393
:104340004B835C83CA01B9010E942B6E2B013C0197
:1043500069897A898B899C890E94296E69877A8705
:104360008B879C8720E030E0A901C301B2010E9445
:10437000256E882309F43BC1A7019601C701B60148
:104380000E948A6E4B015C0129853A854B855C85CC
:10439000CA01B9010E948A6E9B01AC01C501B4013A
:1043A0000E9424724B015C01A3019201C301B2017E
:1043B0000E9425729B01AC01C501B4010E940173EA
:1043C0000E94EB720E946E736D837E838F83988749
:1043D00069817A818B819C8190958095709561959A
:1043E0007F4F8F4F9F4F0E942B6E4B015C016D855D
:1043F0007E858F8598890E94296E69837A838B8355
:104400009C8320E030E0A901C501B4010E94256E23
:10441000882309F4F0C029813A814B815C81CA016B
:10442000B9010E948A6E6D8B7E8B8F8B988FA7014E
:104430009601C701B6010E948A6E9B01AC016D898D
:104440007E898F89988D0E9424726B017C01A50161
:104450009401C501B4010E9425729B01AC01C70102
:10446000B6010E9401730E949A73A98DBA8D959628
:104470008D909D90AD90BC909897750164012D81B1
:104480003E814F815885C21AD30AE40AF50A0E9478
:104490006E73C61AD70AE80AF90AF7FE6EC020E062
:1044A00030E0A901C301B2010E94256E882309F4FE
:1044B000A6C0C501B4010E94296E6B017C01A30155
:1044C0009201C301B2010E9425729B01AC01C70198
:1044D000B6010E948A6E6B017C0129853A854B8565
:1044E0005C85CA01B9010E948A6E9B01AC01C701BB
:1044F000B6010E9424726B017C0129813A814B81B3
:104500005C81CA01B9010E948A6E9B01AC01C7019E
:10451000B6010E9425726B017C0120E030E040E88A
:1045200050E4C301B2010E948A6E9B01AC01C70135
:10453000B6010E9401730E94EB726B017C0120E0C6
:1045400030E0A9010E944B7418161CF0C12CD12C2C
:104550007601C701B6010E946E736D837E838F83DF
:10456000988786169706A806B90620F48D829E8243
:10457000AF82B886C12CD12C76018D819E81AF810E
:10458000B885E98DFA8D81A792A7A3A7B4A7C80E15
:10459000D91EEA1EFB1EC5A6D6A6E7A6F0AA298943
:1045A0003A894B895C8922AF33AF44AF55AFFE9651
:1045B0002D853E854F8558892083318342835383DF
:1045C0006A960FB6F894DEBF0FBECDBFDF91CF91D4
:1045D0001F910F91FF90EF90DF90CF90BF90AF9021
:1045E0009F908F907F906F905F904F90089560E0C4
:1045F00070E0CB01E5CE60E070E0CB0134CF60E04D
:1046000070E0CB0198CFFF920F931F93CF93DF936E
:104610001F92CDB7DEB7F82E0AE911E041E050E075
:10462000B801CE0101960E94BB6D89818F1108C02F
:1046300081E00F90DF91CF911F910F91FF9008952E
:104640000F5F1F4F81E0033B180741F780E0F1CF78
:104650004F925F926F927F92AF92BF92CF92DF9212
:10466000EF92FF920F931F93CF93DF931092C305A6
:104670001092C2052FE320932D0610922C06109263
:104680002B061092F4051092F5051092F605109283
:10469000F7059C01E90198812F5F3F4F9032D1F3DC
:1046A0009E34C9F4898190ED980F9A3020F08D32B4
:1046B00011F08B3281F422969E012F5F3F4F88814B
:1046C00080538A3008F470C09E012F5F3F4F88816D
:1046D000803209F46BC0D093DD0AC093DC0A7E01FE
:1046E0002FEFE21AF20A18816AE270E0C7010E9415
:1046F0002575009731F0FC01319780818032E1F31C
:1047000011821D3421F0143511F01734F1F5F70141
:1047100080819FEFE91AF90A8032C9F380538A3009
:10472000A0F510932D0690E080E0AAE0AF014F5F66
:104730005F4F2081022E000C330B20533109A89FBC
:10474000B001A99F700D1124C901860F971FFA01AE
:10475000208120532A3050F390932C0680932B060F
:10476000DF0131962C912032D9F31D3459F58E3169
:10477000910539F0ECF48731910519F08C319105F0
:1047800009F5B093C305A093C205DF91CF911F91A6
:104790000F91FF90EF90DF90CF90BF90AF907F9000
:1047A0006F905F904F900895E90186CFE9018CCF1B
:1047B000853791053CF0873791051CF3803AE3E09B
:1047C0009E07F9F240E050E0BA0130E020E0C12C51
:1047D000D12C7601C394FD0131960C91002309F48C
:1047E0008CC00132F1F41D34E1F480329105C9F43A
:1047F0004093F4055093F5056093F6057093F70523
:10480000F093C305E093C20563E270E0CF010E941C
:104810002575009709F4B9CFFC011082B6CFDF01EE
:10482000DACF01540A3108F063C0DF01BD90D0E255
:10483000AD2EBA1499F0A0EDAB0DAA3008F1AEE29E
:10484000BA120EC0A181A053AA30D0F021153105B3
:1048500019F49F0121503109B12C16C0FD01E5CF9B
:10486000ADE2AA2EBA1419F0ABE2BA12EFCFA181D1
:10487000B0EDBA0FBA3020F0AE3241F7A281E3CFEB
:10488000BE2EBC1A309741F3A02FB0E026013701AD
:1048900004C0440C551C661C771C0A95D2F74429A9
:1048A000552966297729A851BD4FBC92A081A154F2
:1048B000AA3108F4B4CFDF010191002309F48BCFB2
:1048C000D0EDBD2EB00ED9E0AD2EAB14A0F7D3EDD8
:1048D000BD2EB00EAA24A394AB1468F70B3259F383
:1048E000FD0131960C91003209F075CFDF01F8CF50
:1048F00021153105D9F69D01D9CF3093C3052093F9
:10490000C2054093F4055093F5056093F605709346
:10491000F7053BCF8091140690911506009731F072
:104920004AE050E070E060E00C94886B60E070E07A
:10493000CB010895CF93DF93EB010E94C917882321
:1049400011F0E8DFEB01CE01DF91CF910895E2DFB6
:1049500097FD0AC0DFDF6F3F71058105910509F002
:104960002CF4D8DF862F089580E008958FEF089506
:104970000E94C9178111EBCF80E00895CF9384E5A1
:104980000E94C917C0E08823F1F0E1DFC82F181694
:10499000D4F40E9471188DE40E94EF1760912B06E9
:1049A00070912C06072E000C880B990B0E94E11BBE
:1049B0006C2FCC0F770B89E393E00E94FB1B8AE0FE
:1049C0000E94EF17CFEF8C2FCF910895CF93DF93F5
:1049D000D82FC62F0E94C917882389F0809114060A
:1049E00090911506892B29F4C1E08C2FDF91CF918E
:1049F0000895ADDFC1E08111F8CFC0E0F6CF8D2F73
:104A00000E948017882389F3EFCF0F931F93CF93D2
:104A100080911406909115060097E9F0FC018F0132
:104A2000C1912C2F2F7D81F0C53411F0C536B9F717
:104A3000F801108270E060E00E94336AF801C083E0
:104A4000CF911F910F91089570E060E0CF911F9179
:104A50000F910C94336A60E070E0CB01F1CF86E4F3
:104A60000E94801780931304882349F0CEDF60935F
:104A700008027093090280930A0290930B0283E567
:104A80000E948017882349F0C0DF6093040270936E
:104A90000502809306029093070282E40E94801729
:104AA000882349F0B2DF6093000270930102809383
:104AB00002029093030208952F923F924F925F92C9
:104AC0006F927F928F929F92AF92BF92CF92DF921E
:104AD000EF92FF920F931F93CF93DF93CDB7DEB783
:104AE000E5970FB6F894DEBF0FBECDBF70E060E073
:104AF00085E420DF8823E1F085EA94E0E5960FB6AF
:104B0000F894DEBF0FBECDBFDF91CF911F910F9103
:104B1000FF90EF90DF90CF90BF90AF909F908F90DD
:104B20007F906F905F904F903F902F900C94F6176E
:104B300065E070E083E4FEDE782E60E085E546DF28
:104B400089AB83E50E94C917882351F15EDF0E947B
:104B50006973072E000C880B990B0E942B6E6B87D4
:104B60007C871C010E94CE10698B7A8B8B8B9C8B6F
:104B700060911B0270911C026F507109072E000C8E
:104B8000880B990B0E942B6E9B01AC016B857C8579
:104B9000C1010E944B74181644F48AE794E0AECF2A
:104BA00060E070E086E193E4D2CF86E694E00E9474
:104BB000F6170E94ED108FE78093E20581E0809365
:104BC0003D0229893A894B895C892CA33DA34EA3D8
:104BD0005FA32DA73EA74FA758AB8FE790E0A0E0BB
:104BE000B0E08D839E83AF83B88718A219A21AA262
:104BF0001BA21C8E1D8E1E8E1F8E812C912C54018B
:104C0000198290E49D8BACE1AE8BB6E4BF8B188E1D
:104C1000198E1A8E1B8EFFE7CF2ED12CE12CF12C92
:104C200018A619A61AA61BA621E02D871A86198692
:104C300000E010E01CAA1DAA472C770C55085BAABF
:104C40004AAA0E94CE102B013C01209114042CA7EB
:104C5000222309F46BC00E943F190091DC051091DA
:104C6000DD053091DE053CAB4091DF054DAB288D75
:104C7000398D4A8D5B8DB8018CA99DA90E944B741A
:104C8000181634F4088F198F5CA95A8F8DA98B8F51
:104C900029813D894E895F89B8018CA99DA90E940F
:104CA000256E87FF06C009831D8B9CA99E8BADA92D
:104CB000AF8BBD8598014CA95DA96B857C85C10131
:104CC000BB2309F438C10E94256E87FF2FC0B301B2
:104CD000A2018CA19DA1AEA1BFA1481B590B6A0BDB
:104CE0007B0BDB01CA0188589341A109B109B7FDCB
:104CF0001DC08D819E81AF81B8858C199D09AE093B
:104D0000BF09B595A795979587958093E20548A724
:104D100059A76AA77BA79B85988FAC85A98F2A8EF8
:104D20003B8E498A5A8A6B8A7C8A1D8620E030E055
:104D300040EF51E46B857C85C1010E94257298018A
:104D40004CA95DA90E94256E87FF37C082EF93E0D2
:104D50000E94F617E5960FB6F894DEBF0FBECDBFE2
:104D6000DF91CF911F910F91FF90EF90DF90CF9047
:104D7000BF90AF909F908F907F906F905F904F907B
:104D80003F902F900C94ED105BEEC52ED12CE12CB2
:104D9000F12C28C124E130E040E050E02D833E8337
:104DA0004F83588744E1C42ED12CE12CF12C28C12B
:104DB000CD82DE82EF82F88623C1D301C2012DA508
:104DC0003EA54FA558A9821B930BA40BB50BB7FDAD
:104DD00010C080E00E94D21D8AE00E94EF17D3012C
:104DE000C2018053984FAF4FBF4F8DA79EA7AFA76B
:104DF000B8ABD301C201880F991FAA1FBB1F4989F5
:104E00005A896B897C894CA05DA06EA07FA0440D5F
:104E1000551D661D771D841B950BA60BB70B81389E
:104E20009F44A241B10518F084ED93E091CF4AA8C8
:104E30005BA869847A84461457040CF002CF93016E
:104E4000233031050CF4FDCE87E793E00E94F6177E
:104E50008AE593E00E94F617B501A40183E793E089
:104E60000E94D11C8AE00E94EF178AE593E00E941D
:104E7000F6174C8D5D8D6E8D7F8D8FE693E00E94D1
:104E8000D11C8AE00E94EF178AE593E00E94F61792
:104E900048A159A16AA17BA18BE693E00E94D11C95
:104EA0008AE00E94EF1749A8442061F18092E3054F
:104EB0009092E405A092E505B092E6052CEA35EC67
:104EC00047E25EE36C8D7D8D8E8D9F8D0E948A6E94
:104ED0006093E7057093E8058093E9059093EA05F0
:104EE0002CEA35EC47E25EE368A179A18AA19BA197
:104EF0000E9401736093EB057093EC058093ED05C0
:104F00009093EE05E5960FB6F894DEBF0FBECDBFC9
:104F1000DF91CF911F910F91FF90EF90DF90CF9095
:104F2000BF90AF909F908F907F906F905F904F90C9
:104F30003F902F9008950E944B7418160CF0F6CEF7
:104F4000D301C20129893A894B895C89821B930B61
:104F5000A40BB50BAC01BD0148585341610971095F
:104F600077FDE4CE49855A85452B09F402C128A571
:104F700039A54AA55BA5280F391F4A1F5B1F2D873E
:104F80003E874F87588B28A539A54AA55BA5281BC6
:104F9000390B4A0B5B0BC701B6010E94DA712D85F4
:104FA0003E854F8558890E940175CD80DE80EF8057
:104FB000F884C20ED31EE41EF51E34E1C316D104DC
:104FC000E104F1040CF4E6CE4CEEC416D104E10485
:104FD000F1040CF0D9CE50E8C516D104E104F10477
:104FE0000CF4E6CECD82DE82EF82F8868EEF90E082
:104FF000A0E0B0E08C199D09AE09BF096C017D01EC
:105000008EE594E00E94F6176D817E818F819885F0
:105010000E94E11B89E594E00E94F617C701B601E2
:105020000E94E11B49815D896E897F8982E594E058
:105030000E94D11C488D598D6A8D7B8D8BE494E044
:105040000E94D11C49855A85433051050CF491C00A
:10505000C701B6010E942B6E20E030E040E850E42A
:105060000E948A6E4B015C0129813D894E895F89CE
:10507000688D798D8A8D9B8D0E9424722BED3FE087
:1050800049E450E40E948A6E20E030E040E05FE3B3
:105090000E948A6E9B01AC01C501B4010E9401739C
:1050A0004B015C016D857E858F8598890E942B6EF2
:1050B0002FE632E143E85AE30E948A6E69837A83DD
:1050C0008B839C83B501A40185E494E00E94D11CEC
:1050D00049815A816B817C818FE394E00E94D11CCD
:1050E0002AE939E949E15FE3C501B4010E948A6E0A
:1050F0004B015C01AC019B0169817A818B819C81B0
:105100000E948A6E20E030E040E05EE30E948A6EFA
:1051100068A379A38AA39BA3A5019401C501B40147
:105120000E94257229813A814B815C810E94017322
:105130006C8F7D8F8E8F9F8F8FE294E00E94F61789
:10514000B501A40189E294E00E94D11C4C8D5D8DD3
:105150006E8D7F8D83E294E00E94D11C48A159A1FD
:105160006AA17BA18DE194E00E94D11C8AE00E949B
:10517000EF178D819E81AF81B8858C0D9D1DAE1D71
:10518000BF1DB595A795979587958093E20589856D
:105190009A8501969A8789879B859983AC85AD8B83
:1051A0002E8A3F8A4CA25DA26EA27FA2BCA5BD87BB
:1051B000BDCD8F929F92AF92BF92CF92DF92EF922E
:1051C000FF920F931F93CF938AE1E82E86E0F82E8B
:1051D0000EEE1AE09EEFC92E9AE0D92EC0E088E5C7
:1051E0008C0F0E94C917882309F478C00EDC4B018C
:1051F0005C018C2F0E946617882309F465C0F801B2
:105200002081318142815381C501B4010E94257200
:10521000F7016083718382839383CF5FF4E0EF0EA5
:10522000F11C0C5F1F4F84E0C80ED11CC330B9F6CF
:1052300085E40E94C917882309F45BC0E6DB6B0193
:105240007C0183E00E946617882371F02091FA0A9E
:105250003091FB0A4091FC0A5091FD0AC701B6014A
:105260000E9425726B017C01C0922606D09227060F
:10527000E0922806F092290686E40E94C917882346
:10528000B9F0C3DB20E030E0A9010E944B7418168E
:105290007CF4BBDB20E030E040E752E40E94017385
:1052A00060934002709341028093420290934302C4
:1052B000CF911F910F91FF90EF90DF90CF90BF9013
:1052C000AF909F908F900895F601208131814281A7
:1052D0005381C501B4010E9424729ACFF8018081E4
:1052E0009181A281B381F70180839183A283B383EB
:1052F00094CF8091FA0A9091FB0AA091FC0AB09198
:10530000FD0A8093260690932706A0932806B09363
:105310002906B2CF2F923F924F925F926F927F9267
:105320008F929F92AF92BF92CF92DF92EF92FF92B5
:105330000F931F93CF93DF9300D000D01F921F9243
:10534000CDB7DEB70E94CE106B017C0100913C020C
:1053500009830023F1F080912E068823D1F040913B
:1053600075025091760260917702709178029701F0
:105370008601041B150B260B370BB901A80177FD1D
:105380001BC0833009F4D6C00CF0C5C081300CF0CE
:10539000CAC01981212F30E0A8EEB3E00E94157237
:1053A000C60ED71EE81EF91EC0927502D092760274
:1053B000E0927702F09278028091A805843008F09C
:1053C00074C080E6F82E01E08091A805843008F0D2
:1053D0006CC08091020390910303891B8F7709F4BD
:1053E00064C00E94971897FDEFCF8A3019F08D3076
:1053F00009F04DC11092E2028091520B9091530B33
:10540000FC01EE57FD4F1082892B09F498C01092D1
:10541000530B1092520B22E832E03F832E83EE8131
:10542000FF818191803209F48DC08E3409F0CBC0A8
:1054300064E273E08E819F810E94DC6D6C01892B98
:1054400049F06EE470E08E819F8104960E9425757C
:10545000009711F48E819F814AE050E070E060E097
:1054600001960E94886BAB01BC0140937E02509371
:105470007F0260938002709381028091540B90911F
:10548000550BA091560BB091570B0196A11DB11D64
:10549000481759076A077B0709F457C0CD2809F058
:1054A00054C081EF92E00E94EB200E94CE106B016D
:1054B0007C018091C4059091C505A091C605B0916D
:1054C000C7050097A105B10509F40BC14091160667
:1054D000509117066091180670911906840F951F58
:1054E000A61FB71F97018601081B190B2A0B3B0B40
:1054F000D901C801B7FDF5C00E944B186091DC0AC4
:105500007091DD0A84EF91E00E943A188AE00E94CF
:10551000EF1780E087C0843009F03BCF0E947118FC
:1055200083EB91E004C00E94711882EE91E00E942A
:10553000F6172FCF0E9471188BEC91E0F8CF0E94E4
:105540005A1942CFFF83EE836ACF6AE270E08E8100
:105550009F810E9440759C01009711F1982F4E8108
:10556000941B10E0992341F09150EE81FF81E90FE7
:10557000F11D80811827F6CF4AE050E070E060E02E
:10558000C90101960E94886B812E912CB12CA12C0F
:10559000681579058A059B0531F082ED92E083CF8D
:1055A00088EA92E080CF80917E0290917F02A09164
:1055B0008002B09181028093540B9093550BA0937D
:1055C000560BB093570B80914402811118C067E4C9
:1055D00070E08E819F810E942575009781F04AE0DE
:1055E00050E070E060E001960E94886B64307105C5
:1055F0008105910520F481E392E00E94F6176DE4A5
:1056000072E08E819F810E943075892B11F4109277
:105610003D0262E572E08E819F810E943075892B88
:1056200019F481E00E944E1867E572E08E819F8137
:105630000E943075892B11F40E94DE438091820212
:105640008B3309F4C1CE1091A8051A83143008F0E9
:10565000BBCE10917D021F9DC001112462E872E053
:10566000885D9B4F0E943975E12FF0E0EF58F44FB1
:1056700000831F5F1983143038F410937D021A8160
:105680001F5F1093A805A0CE10927D02F8CF9091D5
:10569000E202913009F498CE9430B0F09450909397
:1056A000E2022091520B3091530BA9014F5F5F4FE3
:1056B0005093530B4093520B2E573D4FF90180836B
:1056C0004F3551055CF480CE8C3531F49C5F90935E
:1056D000E202943031F778CE8B3319F70093E2026F
:1056E00073CE8091380290913902A0913A02B09124
:1056F0003B020097A105B10589F030915B0B209129
:105700005C0B321709F4BFC00E94CE1060931606DE
:105710007093170680931806909319068091E30200
:105720009091E402A091E502B091E6029701860112
:10573000081B190B2A0B3B0BD901C801B7FD5BC134
:1057400090915B0B80915C0B60915806981749F023
:10575000E0915C0B17E4E19FF0011124E155F94F52
:10576000608170E089E00E94A30F80911304882378
:1057700009F434C120900402309005020091060221
:105780000887109107021E836091E0057091E10582
:105790006E5F7F4F072E000C880B990B0E942B6EBB
:1057A0009101A8010E94256E87FD18C100915C0B34
:1057B00009831A821B821C821D8280915B0B1981D6
:1057C000811709F49AC0812F90E027E4289FF00107
:1057D000299FF00D1124E759F94F458956896789AA
:1057E000708D452B462B472B81F4418D528D638D57
:1057F000748D452B462B472B41F4458D568D678D77
:1058000070A1452B462B472BC9F137E4389F800107
:10581000399F100D11240759194FF80161817281C8
:10582000838194810E9490744B015C01F80161A115
:1058300072A183A194A10E94296E2B013C01F80161
:1058400065A176A187A190A50E94296E9B01AC015C
:10585000C301B2010E940173A50194010E948A6EE6
:105860005B018C012A813B814C815D810E944B74DC
:10587000181624F4AA82BB820C831D8389818F5F52
:105880008F7089839ACF40911606509117066091C8
:10589000180670911906840F951FA61FB71FA70140
:1058A0009601281B390B4A0B5B0BDA01C901B7FDC6
:1058B00021C08091E702811131CF81E08093E7021E
:1058C0005F9A809112068E7F809312068A9A809149
:1058D00012068D7F80931206809108018095817059
:1058E00080930601809112068B7F809312060E949E
:1058F000D51714CF1092E70211CF209108023091F2
:10590000090240910A0250910B026A817B818C81CD
:105910009D810E948A6E910148855E810E94257258
:105920005B018C0160900002709001028090020285
:10593000909003029B01AC01B10188859E810E9479
:105940004B74181664F09301A401B501C8010E94BC
:105950004B7418160CF49CC0150108871E838090A8
:10596000790290907A02A0907B02B0907C02910123
:1059700048855E81C501B4010E944B741816E4F499
:1059800020E037ED43EA5CE3B10188859E810E9407
:105990008A6E2B013C0128E431EE4AE75FE3C50142
:1059A000B4010E948A6E9B01AC01C301B2010E9446
:1059B00025721B0188879E83C101A885BE818093C3
:1059C000790290937A02A0937B02B0937C02B1019A
:1059D000CD010E946973CB010E94FC11F4E6CF0E49
:1059E000D11CE11CF11CC092E302D092E402E092CF
:1059F000E502F092E6020E945A190091CC05098353
:105A0000002309F449C00E94CE100091C8051091EE
:105A1000C9052091CA053091CB05601B710B820B23
:105A2000930B97FD39C00E94CE106B017C01198148
:105A3000212F30E0A8EEB3E00E941572C60ED71EEB
:105A4000E81EF91EC092C805D092C905E092CA05A9
:105A5000F092CB0580E00E94D21D8AE028960FB616
:105A6000F894DEBF0FBECDBFDF91CF911F910F9194
:105A7000FF90EF90DF90CF90BF90AF909F908F906E
:105A80007F906F905F904F903F902F900C94EF1706
:105A9000130188869E8263CF28960FB6F894DEBFE6
:105AA0000FBECDBFDF91CF911F910F91FF90EF906F
:105AB000DF90CF90BF90AF909F908F907F906F902E
:105AC0005F904F903F902F9008952F923F924F926A
:105AD0005F926F927F928F929F92AF92BF92CF927E
